:020000040800F2
:10000000D8090020F9020008390600083506000862
:100010003706000831060008D1070008000000007C
:10002000000000000000000000000000390200088D
:10003000330600080000000095020008F5060008DD
:100040001303000813030008130300081303000838
:100050001303000813030008130300081303000828
:100060001303000813030008130300081303000818
:100070001303000813030008130300081303000808
:1000800013030008130300081303000813030008F8
:1000900013030008130300081303000813030008E8
:1000A00013030008130300081303000813030008D8
:1000B00013030008130300081303000813030008C8
:1000C00013030008130300081303000813030008B8
:1000D0001303000855070008130300081303000862
:1000E0001303000813030008130300081303000898
:1000F0001303000813030008130300081303000888
:100100001303000813030008130300081303000877
:100110001303000813030008130300081303000867
:100120001303000813030008130300081303000857
:100130001303000813030008130300081303000847
:100140001303000813030008130300081303000837
:100150001303000813030008130300081303000827
:100160001303000813030008130300081303000817
:100170001303000813030008130300081303000807
:10018000130300081303000800F002F800F044F81D
:100190000AA090E8000C82448344AAF10107DA45E2
:1001A00001D100F039F8AFF2090EBAE80F0013F0F0
:1001B000010F18BFFB1A43F00103184700090000A4
:1001C00020090000103A24BF78C878C1FAD8520735
:1001D00024BF30C830C144BF04680C6070470000C1
:1001E0000023002400250026103A28BF78C1FBD840
:1001F000520728BF30C148BF0B607047642900F028
:100200000781732900F0AF81002070471FB500F00F
:100210004FFC1FBD10B510BD00F0D8F91146FFF717
:10022000F5FF00F0E1FA00F0F6F903B4FFF7F2FF92
:1002300003BC00F0CEFA00002C4B19680868B0E847
:10024000F04F80F30988BFF36F8F4FF0000080F309
:10025000118870470000000008480068006880F3BB
:1002600008884FF0000080F3148862B661B6BFF3CF
:100270004F8FBFF36F8F00DF00BF00BF08ED00E0BE
:10028000DFF80C00016841F470010160704700BFA5
:1002900088ED00E0EFF30980BFF36F8F134B1A680E
:1002A0001EF0100F08BF20ED108A20E9F04F1060FB
:1002B00009B44FF0500080F31188BFF34F8FBFF3A4
:1002C0006F8F00F0F3FA4FF0000080F3118809BC43
:1002D00019680868B0E8F04F1EF0100F08BFB0ECC6
:1002E000108A80F30988BFF36F8F704704000020E5
:1002F000EFF3058070470000094880470948004730
:10030000FEE7FEE7FEE7FEE7FEE7FEE7FEE7FEE7C5
:10031000FEE7FEE704480549054A064B7047000022
:10032000F906000889010008D8030020D809002038
:10033000D8050020D8050020704700000FB40449FC
:1003400010B503AA029800F013F910BC5DF814FB75
:10035000000000202DE9F0410E46044600202062F6
:100360002046E168884730B3252805D0D4E901212B
:100370009047206A401CF2E7E16820460027884742
:10038000050018D0A5F14100192802D820354FF4F6
:1003900000673246294620462760FFF72FFF40B10D
:1003A000012804D0F61D26F007060836D8E7361DCA
:1003B000D6E72846DAE7206ABDE8F08170B50C463A
:1003C0000546012A05D02878800600D5EA69002371
:1003D00002E0012305E05B1C934202D2E05C0028AE
:1003E000F9D1A869E618C01AA861286A18442862D9
:1003F0002846AFF3008004E0D5E9012114F8010B91
:100400009047B442F8D32846AFF3008070BD000097
:100410002DE9F0410646002410687529314616A5DD
:1004200010D0AFF30080002802DA404213A507E0A5
:1004300031688A0701D512A502E0490704D511A544
:10044000012401E0AFF3008000210A2206F1240715
:1004500009E0B0FBF2FCB0FBF2F302FB1C00303011
:1004600078541846491C0028F3D123462A463046C2
:10047000BDE8F04100F00CB8000000002D000000C5
:100480002B00000020000000704770477047704745
:100490002DE9F0470D4699469246044600F124089E
:1004A0000168880604D5E06921F01001216000E0B0
:1004B0000120A84201DD471B00E00027A1697A194D
:1004C00002EB0900081AA0612078C00602D4204679
:1004D000AFF30080002608E0D4E901211AF80600F5
:1004E0009047206A401C761C20624E45F4DB207841
:1004F000C0060AD52046AFF3008006E0D4E901210A
:1005000030209047206A401C2062381EA7F1010766
:10051000F4DC07E0D4E9012118F805009047206ACF
:10052000401C2062281EA5F10105F3DC2046AFF334
:1005300000802078000602D50220BDE8F087012067
:10054000FBE710B5436913B1AFF3008001E0FFF79B
:1005500035FF012010BD127800F124010A7000223D
:100560004A700122EDE711684FF0FF32E9E7000021
:10057000074B70B50D467B4400F011F80446284641
:1005800000F020F810B14FF0FF3070BD204670BD74
:100590005B02000001694A1C02610878704700B5DF
:1005A0008FB0CDE901310021059105497944CDE9AC
:1005B000031011466846FFF7CDFE0FB000BD0000E6
:1005C000E5FFFFFF007B00F080007047754600F0FC
:1005D0002BF8AE4605006946534620F007008546D5
:1005E00018B020B5FFF796FEBDE820404FF000069A
:1005F0004FF000074FF000084FF0000B21F007010B
:10060000AC46ACE8C009ACE8C009ACE8C009ACE84D
:10061000C0098D46704710B50446AFF300802046F0
:10062000BDE81040FFF701BE004870477803002086
:10063000FEE77047FEE7FEE7704700000CB50022BA
:10064000019200922749086840F4803008604FF416
:10065000A043086800F4003000900198401C01900D
:10066000009810B901989842F3D10868800302D528
:100670000120009000E000920098012831D1194833
:100680004030026842F0805202601748026842F42B
:10069000404202601348083002680260026842F477
:1006A00000420260026842F4A0520260021F0F4B37
:1006B00013600A6842F080720A600A689201FCD5F1
:1006C0000B4A40F205711160016821F003010160DD
:1006D000016841F0020101600168C1F38101022952
:1006E000FAD10CBD003802400070004008544007A9
:1006F000003C024000F01CB910B51248016841F4FA
:10070000700101601048016841F0010101600E4A6A
:1007100000210832116002680C4B1A400260031D70
:100720000B4A1A60026822F48022026006480C30EC
:100730000160FFF783FF03494FF0006080390860D4
:1007400010BD000088ED00E000380240FFFFF6FE1B
:100750001030002410B5094C40F22551204600F01D
:1007600013F8002808D0204600F02EF8C1B2BDE8EA
:10077000104003A0FFF7E2BD10BD000000100140D3
:1007800025640D0A0000000070B5002440F66A12CE
:10079000C1F3421301F01F05012606FA05F2012BF1
:1007A0000CD0022B0DD0838A1340090A8E4000889A
:1007B00030400BB100B10124204670BD8389134045
:1007C000F3E7038A1340F0E78088C0F3080070471E
:1007D000FEE7704703490A885206FCD5C2B28A80F8
:1007E0007047000000100140144800F039F8134829
:1007F000143000F040F8114901201431086001F173
:10080000140000F038F80D4902202831086001F189
:10081000140000F030F8094903203C310860283901
:10082000064800F02BF805490448283100F026F866
:10083000024902483C3100F021F8FEE74400002064
:100840000648816B0968002904D0816BC968096872
:10085000816270474FF0FF318162704704000020D1
:1008600000F1080141604FF0FF328260C160016118
:1008700000210160704700210161704730B50C68AC
:10088000621C02D000F1080202E0026904E01A468C
:1008900053681D68A542FAD953684B6099608A6015
:1008A000516008610168491C016030BD70B5144D8C
:1008B000686B002802D00120E86170BD0020E8616B
:1008C0002869B0FA80F0C0F11F000E4E00EB8004E2
:1008D00056F8240028B940F6F6320BA110A0FFF715
:1008E0002DFD06EB840041684968416000F1080273
:1008F000914201D1496841604068C068286070BD7C
:1009000004000020940000202E2E5C467265655283
:10091000544F535C7372635C7461736B732E63002A
:100920004572726F723A25732C25640D0A0000001F
:1009300010B5502080F31188BFF34F8FBFF36F8F36
:1009400000F00CF818B104494FF080500860002006
:1009500080F3118810BD000004ED00E02DE9F041A6
:100960000025474E706B002805D0B069401CB0616F
:100970002846BDE8F081F468641CF4608CB9B06B63
:10098000006828B140F6B7223EA144A0FFF7D6FC8C
:10099000B06BF16BB163F063306A401C3062FFF7FB
:1009A0004FFFB06A414F84420FD34FF0000CB06B41
:1009B000006838B1B06BC068C1684868844212D220
:1009C000B06202E04FF0FF30B0623068C06A00EB06
:1009D000800057F82000012800D90125F06900287F
:1009E000C6D00125C4E74A69D1E902309860D1E94F
:1009F0000203586050680B1D984201D1C8685060CE
:100A0000C1F814C01068401E10608A6A9AB1D1E91A
:100A10000780C8F80800D1E90708C8F80400506842
:100A200001F11808404501D1086A5060C1F828C09A
:100A30001068401E1060C86A0122D6F810808240FB
:100A400042EA0802326100EB800007EB8000426856
:100A50008A609068C860906843609360C86A00EBE1
:100A6000800007EB80024A6157F82020521C47F8AB
:100A70002020C86A3168C96A884298D9012596E75A
:100A8000040000202E2E5C4672656552544F535C64
:100A90007372635C7461736B732E63004572726F63
:100AA000723A25732C25640D0A0000009400002082
:100AB0004FF04070E1EE100A70470000DC0A0008B9
:100AC0000000002044000000C4010008200B0008C2
:100AD0004400002094090000E0010008000000002C
:100AE0000000000000000000000000000000000006
:100AF00000000000000000000000000000000000F6
:100B000000000000000000000000000000000000E5
:100B10001F000000000000000000000000000000B6
:040000050800018965
:00000001FF
