:020000040800F2
:1000000088A00020F90200089B0800081D080008CD
:100010009908000879070008990C00080000000002
:10002000000000000000000000000000390200088D
:100030007B0700080000000095020008A90A0008DC
:100040001303000813030008130300081303000838
:100050001303000813030008130300081303000828
:100060001303000813030008130300081303000818
:100070001303000813030008130300081303000808
:1000800013030008130300081303000813030008F8
:1000900013030008130300081303000813030008E8
:1000A00013030008130300081303000813030008D8
:1000B00013030008130300081303000813030008C8
:1000C00013030008130300081303000813030008B8
:1000D00013030008090B00081303000813030008AA
:1000E0001303000813030008130300081303000898
:1000F0001303000813030008130300081303000888
:100100001303000813030008130300081303000877
:100110001303000813030008130300081303000867
:100120001303000813030008130300081303000857
:100130001303000813030008130300081303000847
:100140001303000813030008130300081303000837
:100150001303000813030008130300081303000827
:100160001303000813030008130300081303000817
:100170001303000813030008130300081303000807
:10018000130300081303000800F002F800F044F81D
:100190000AA090E8000C82448344AAF10107DA45E2
:1001A00001D100F039F8AFF2090EBAE80F0013F0F0
:1001B000010F18BFFB1A43F0010318477C1D000014
:1001C0009C1D0000103A24BF78C878C1FAD85207A5
:1001D00024BF30C830C144BF04680C6070470000C1
:1001E0000023002400250026103A28BF78C1FBD840
:1001F000520728BF30C148BF0B607047642900F028
:100200000781732900F0D681002070471FB501F0E7
:100210008DFE1FBD10B510BD00F0FEF91146FFF7B1
:10022000F5FF00F063FD00F01CFA03B4FFF7F2FFE6
:1002300003BC00F032FD00002C4B19680868B0E8E0
:10024000F04F80F30988BFF36F8F4FF0000080F309
:10025000118870470000000008480068006880F3BB
:1002600008884FF0000080F3148862B661B6BFF3CF
:100270004F8FBFF36F8F00DF00BF00BF08ED00E0BE
:10028000DFF80C00016841F470010160704700BFA5
:1002900088ED00E0EFF30980BFF36F8F134B1A680E
:1002A0001EF0100F08BF20ED108A20E9F04F1060FB
:1002B00009B44FF0500080F31188BFF34F8FBFF3A4
:1002C0006F8F01F06DFB4FF0000080F3118809BCC7
:1002D00019680868B0E8F04F1EF0100F08BFB0ECC6
:1002E000108A80F30988BFF36F8F70476800002081
:1002F000EFF3058070470000094880470948004730
:10030000FEE7FEE7FEE7FEE7FEE7FEE7FEE7FEE7C5
:10031000FEE7FEE704480549054A064B7047000022
:10032000AD0A000889010008889A002088A00020F2
:10033000889C0020889C0020704700000FB404496E
:1003400010B503AA029800F039F910BC5DF814FB4F
:10035000300000202DE9F0410E46044600202062C6
:100360002046E168884730B3252805D0D4E901212B
:100370009047206A401CF2E7E16820460027884742
:10038000050018D0A5F14100192802D820354FF4F6
:1003900000673246294620462760FFF72FFF40B10D
:1003A000012804D0F61D26F007060836D8E7361DCA
:1003B000D6E72846DAE7206ABDE8F08170B50C463A
:1003C0000546012A05D02878800600D5EA69002371
:1003D00002E0012305E05B1C934202D2E05C0028AE
:1003E000F9D1A869E618C01AA861286A18442862D9
:1003F0002846AFF3008004E0D5E9012114F8010B91
:100400009047B442F8D32846AFF3008070BD000097
:100410002DE9F0410646002410687529314616A5DD
:1004200010D0AFF30080002802DA404213A507E0A5
:1004300031688A0701D512A502E0490704D511A544
:10044000012401E0AFF3008000210A2206F1240715
:1004500009E0B0FBF2FCB0FBF2F302FB1C00303011
:1004600078541846491C0028F3D123462A463046C2
:10047000BDE8F04100F033B8000000002D0000009E
:100480002B000000200000004FF0000200B51346D2
:1004900094469646203922BFA0E80C50A0E80C50A4
:1004A000B1F12001BFF4F7AF090728BFA0E80C5055
:1004B00048BF0CC05DF804EB890028BF40F8042B4E
:1004C00008BF704748BF20F8022B11F0804F18BFBB
:1004D00000F8012B704770477047704770472DE94F
:1004E000F0470D4699469246044600F124080168FB
:1004F000880604D5E06921F01001216000E00120A8
:10050000A84201DD471B00E00027A1697A1902EB30
:100510000900081AA0612078C00602D42046AFF373
:100520000080002608E0D4E901211AF8060090476F
:10053000206A401C761C20624E45F4DB2078C00601
:100540000AD52046AFF3008006E0D4E9012130202F
:100550009047206A401C2062381EA7F10107F4DC96
:1005600007E0D4E9012118F805009047206A401CF3
:100570002062281EA5F10105F3DC2046AFF30080C0
:100580002078000602D50220BDE8F0870120FBE7B5
:1005900010B5436913B1AFF3008001E0FFF70EFF20
:1005A000012010BD127800F124010A7000224A7067
:1005B0000122EDE711684FF0FF32E9E7074B70B514
:1005C0000D467B4400F011F80446284600F020F860
:1005D00010B14FF0FF3070BD204670BD1307000012
:1005E00001694A1C02610878704700B58FB0CDE9F7
:1005F00001310021059105497944CDE903101146E7
:100600006846FFF7A7FE0FB000BD0000E5FFFFFF43
:10061000007B00F080007047754600F02BF8AE4676
:1006200005006946534620F00700854618B020B5FE
:10063000FFF770FEBDE820404FF000064FF00007C6
:100640004FF000084FF0000B21F00701AC46ACE87A
:10065000C009ACE8C009ACE8C009ACE8C0098D46E7
:10066000704710B50446AFF300802046BDE8104047
:10067000FFF7DBBD00487047249A00207CB500F0EE
:10068000FDFE022417482502CDE9004000232A463A
:1006900015A1184801F074FA01281AD016A0FFF726
:1006A0004DFE10480023001DCDE900402A4619A147
:1006B0001B4801F065FA01280FD01AA0FFF73EFE93
:1006C0000848001F006801F05DF8BDE87C4000F0BC
:1006D0000FBF1BA0FFF732FEE3E720A0FFF72EFEBF
:1006E000EEE70000040000204C4544315F54617384
:1006F0006B000000210800084C4544315F546173D1
:100700006B20C8CECEF1B4B4BDA8CAA7B0DC210D11
:100710000A0000004C4544325F5461736B000000D6
:100720003D0800084C4544325F5461736B20C8CECD
:10073000CEF1B4B4BDA8CAA7B0DC210D0A000000F8
:100740004C4544315F5461736B20C8CECEF1B4B4D4
:10075000BDA8B3C9B9A6210D0A0000004C4544321A
:100760005F5461736B20C8CECEF1B4B4BDA8B3C9D9
:10077000B9A6210D0A000000FEE770472DE9F041FF
:10078000002201274FF0030C07FA02F50B682B40FB
:10079000AB422CD1066853000CFA03F4A643066062
:1007A0000E79D0F800809E4046EA080606600E7971
:1007B000012E01D0022E12D18668A64386604E79A2
:1007C000D0F808809E4046EA080686604668AE4338
:1007D000466045688E799640B6B235434560C56837
:1007E000A543C560CC799C40C3681C43C460521CBF
:1007F000102AC9D3BDE8F08110B54B07DB0E9A4033
:10080000C90800EB8100016A0F249C40A1430162EA
:10081000016A1143016210BD81617047FEE700006B
:10082000054C4FF4FA75D4F8A412C943C4F8A412C5
:10083000284600F06DFFF6E700804242054C4FF479
:10084000FA75D4F8A812C943C4F8A812284600F0D3
:100850005FFFF6E7008042427CB50121202000F0D6
:100860005BF84FF4C064009401208DF8040000226E
:100870008DF8062003228DF805208DF80700054D20
:1008800069462846FFF77AFF21462846FFF7C4FF4E
:100890007CBD000000140240FEE7704730B50F2316
:1008A000C27801250178002A1FD0154A126802F487
:1008B000E062C2F5E062C2F30722C2F10404D34051
:1008C0004278A24084781C401443220101F1E021C7
:1008D00081F80024007800F01F018D40400980005D
:1008E00000F1E020C0F8005130BD01F01F0085404C
:1008F0004809800000F1E020C0F8805130BD0000C0
:100900000CED00E00249084302490860704700000E
:100910000000FA050CED00E0054A002903D011683B
:1009200001431160704711688143116070470000F6
:1009300030380240054A002903D011680143116094
:1009400070471168814311607047000044380240CD
:1009500070B5244B196801F00C01234C00291ED0FE
:10096000661004291DD008291DD00460196801F003
:10097000F00109091D4A545C0168E14041601C68AE
:1009800004F4E054A40A145D21FA04F484601B68A2
:1009900003F460435B0BD25CD140C16070BD046066
:1009A000E4E70660E2E70F4A121F1168C1F38055C1
:1009B000116801F03F0135B1B6FBF1F11468C4F3E1
:1009C0008814614305E0B4FBF1F11468C4F38814A2
:1009D00061431268C2F30142521C5200B1FBF2F1B2
:1009E0000160C3E7083802400024F4002000002022
:1009F0000CB50022019200922749086840F480302B
:100A000008604FF4A043086800F40030009001989B
:100A1000401C0190009810B901989842F3D10868E1
:100A2000800302D50120009000E000920098012888
:100A300031D119484030026842F0805202601748B4
:100A4000026842F4404202601348083002680260C3
:100A5000026842F400420260026842F4A05202605E
:100A6000021F0F4B13600A6842F080720A600A6826
:100A70009201FCD50B4A40F205711160016821F02A
:100A800003010160016841F0020101600168C1F3E6
:100A900081010229FAD10CBD0038024000700040EB
:100AA00008544007003C024001F054B810B5124809
:100AB000016841F4700101601048016841F00101D2
:100AC00001600E4A00210832116002680C4B1A4086
:100AD0000260031D0B4A1A60026822F48022026041
:100AE00006480C300160FFF783FF03494FF00060B8
:100AF0008039086010BD000088ED00E00038024039
:100B0000FFFFF6FE1030002410B5094C40F22551CD
:100B1000204600F023F8002808D0204600F0B8F85E
:100B2000C1B2BDE8104003A0FFF708BC10BD000033
:100B30000010014025640D0A000000008A05C94329
:100B400001807047002904D0818941F400518181DE
:100B50007047818921F400518181704770B500246C
:100B600040F66A12C1F3421301F01F05012606FA8E
:100B700005F2012B0CD0022B0DD0838A1340090AF9
:100B80008E40008830400BB100B10124204670BD7A
:100B900083891340F3E7038A1340F0E710B540F66A
:100BA0006A13C1F3421301F01F040121A140012B7C
:100BB00007D0022B07D014303AB102680A43026012
:100BC00010BD0C30F8E71030F6E702688A43026087
:100BD00010BD00007FB504460D46208A20F4405128
:100BE000E88808432082A08941F20C618843A988E3
:100BF0002A8911436A8902431143A181A08A20F402
:100C00004071A8890843A0826846FFF7A1FE1E48EC
:100C1000844202D01D48844201D1039800E002982A
:100C2000A189090408D500EBC00101EB0010296877
:100C30004900B0FBF1F007E000EBC00101EB001050
:100C400029688900B0FBF1F06422B0FBF2F10901E0
:100C50000B096FF018056B4300EB8300A3891D049B
:100C60004FF0320307D503EBC000B0FBF2F000F009
:100C70000700084306E003EB0010B0FBF2F000F0C1
:100C80000F00084320817FBD001001400014014087
:100C90008088C0F308007047FEE7704701200C49C8
:100CA0000968002901D0002070470A49CA690AB1C1
:100CB000002070478A690AB100207047044A283230
:100CC00012688968491E8A42F7D1022070470000E5
:100CD000E89900206800002003490A885206FCD5E4
:100CE000C2B28A8070470000001001401CB54FF46A
:100CF000A060FFF707FE4FF4E13000F015FBFFF7AF
:100D0000ABFD09480121CDE900104A02002307A1EB
:100D10000A4800F035FF012802D04FF0FF301CBD1B
:100D200000F09CFDFEE700000000002041707054C0
:100D300061736B4372656174650000007D06000895
:100D40002DE9F04104460F461E4DEE682868001D4F
:100D500000F044FB38B9286890F82C100120884036
:100D6000296981432961601C15D1A7B116494868DA
:100D70002A68906082682B68DA602A688368121D8E
:100D80005A602A68121D8260286841610868401C08
:100D90000860BDE8F081344428684460B44206D25B
:100DA0002968E86B091DBDE8F04100F043BB2968E4
:100DB000A86B091D00F03EFBA86A8442E9D2AC6230
:100DC000E7E7000068000020109A002070B5044694
:100DD00000F054FB244DA868401CA860286810B19E
:100DE000686938B10CE02C60A868012808D100F0CF
:100DF00075F905E02868E16AC06A884200D82C606D
:100E0000686A401C6862E06A01212A6981401143D6
:100E10002961164A00EB800002EB80004068A06068
:100E20008168E1608368211D59608160E06A00EBA0
:100E3000800002EB8001616152F82010491C42F8E9
:100E4000201000F055FB686900280CD02868E16A82
:100E5000C06A884207D206494FF080500860BFF34D
:100E60004F8FBFF36F8F70BD680000204097002048
:100E700004ED00E070B50C4D0C4E11E000F0FEFAF0
:100E8000F068C468201D00F0A9FAA868401EA86098
:100E90006868401E686000F02BFB204600F008F8F0
:100EA00068680028EAD170BD68000020FC99002025
:100EB00010B5044694F8490000280BD0012811D041
:100EC000022814D0BDE8104040F6957208A10EA08B
:100ED000FFF734BA206B00F03DFB2046BDE8104020
:100EE00000F038BB2046BDE8104000F033BB10BD19
:100EF0002E2E5C4672656552544F535C7372635C70
:100F00007461736B732E63004572726F723A25734E
:100F10002C25640D0A00000000200B490A69012AF3
:100F200000D901200A68D26A0AB100207047074A36
:100F30001268012A01D90020704708B100207047CB
:100F4000886AC968401A70476800002040970020EE
:100F50004FF410410E48420706D0C01D20F0070094
:100F60000B49411AC1F510410A4B186000225A6022
:100F70000144083921F00701143B19604A600A60F6
:100F80000A1A42600160406898605860704700002B
:100F90004007002048000020144D4FF08056144FA9
:100FA000144C40F6B958FFF765FF2868012804D9AA
:100FB0003E60BFF34F8FBFF36F8FFFF7ADFF022887
:100FC000F1D300F0E5FCA06AE168884204D2424611
:100FD00009A10FA0FFF7B2F9FFF79EFF022801D386
:100FE00000F02AFB00F0FAFEDDE700004097002049
:100FF00004ED00E0680000202E2E5C46726565520C
:10100000544F535C7372635C7461736B732E630033
:101010004572726F723A25732C25640D0A00000028
:101020002DE9F047DDE908580A9C81460E469A46AC
:10103000206B521E00EB820020F00707780705D0D6
:1010400040F25D321BA121A0FFF778F966B10020C4
:101050002218315C82F83410315C11B1401C102828
:10106000F6D3002084F84300202D05D340F29232BD
:1010700010A116A0FFF762F9202D00D31F25E5620D
:10108000201D00F0D4F904F1180000F0D0F924611B
:10109000C5F12000A061646252464946384600F01E
:1010A00031F92060B8F1000F01D0C8F80040BDE868
:1010B000F08700002E2E5C4672656552544F535CDB
:1010C0007372635C7461736B732E63004572726F2D
:1010D000723A25732C25640D0A00000070B50024B7
:1010E000114D04EB840005EB800000F095F9641CC1
:1010F000202CF6D30D4800F08FF90C48143000F086
:101100008BF90A48283000F087F908483C3000F095
:1011100083F90648503000F07FF9054803498163A0
:101120001431C16370BD000040970020C0990020B9
:101130006800002030B5134900E011460A68824279
:10114000FBD34B685C18844203D140681844486064
:1011500008460D6844682318AB420DD1094B143B77
:101160001B689A4206D05268224442600A6812689C
:10117000026002E0036000E00260814200D008608B
:1011800030BD0000480000200648816B0968002936
:1011900004D0816BC9680968816270474FF0FF31E4
:1011A000816270476800002008484068401C04D0F5
:1011B000EC2207A110A0FFF7C1F8502080F311889E
:1011C000BFF34F8FBFF36F8FFEE70000500000208A
:1011D0002E2E5C4672656552544F535C706F72746C
:1011E0005C525644535C41524D5F434D34465C70F3
:1011F0006F72742E630000004572726F723A25732D
:101200002C25640D0A0000002DE9F041054600265A
:1012100000F0BEFB2D4F386808B9FFF799FE4DB1BD
:1012200005F00700C0F11000C1438D4201D805440C
:1012300000E00025002D3CDD7868854239D823493F
:1012400014310846046801E0214604466068A8425B
:1012500002D220680028F7D13868844229D00E686D
:101260000836206808606068401B102811D904EB1C
:1012700005085FEA487004D0DC2215A11DA0FFF725
:101280005DF86068401BC8F8040065604046FFF7E1
:1012900051FF61687868401A7860BA68904200D25D
:1012A000B86041F00040606000202060F868401C99
:1012B000F86000F093FD700705D04FF48E7204A122
:1012C0000CA0FFF73BF83046BDE8F0813400002069
:1012D0002E2E5C4672656552544F535C706F72746B
:1012E0005C4D656D4D616E675C686561705F342E45
:1012F000630000004572726F723A25732C25640DED
:101300000A00000024384FF08073036221F00101CD
:10131000C1610449816142606FF0020140F8201907
:1013200070470000A9110008F0B587B005460121FB
:101330000846FFF7F1FA01211020FFF7FBFA254FCD
:10134000072209213846FFF757FA07220A213846B3
:10135000FFF752FA4FF4C060059002208DF8180094
:101360008DF8190000248DF81A4001268DF81B60B5
:1013700005A93846FFF702FA0195ADF80840ADF827
:101380000A40ADF80C40ADF810400C20ADF80E004E
:10139000114C01A92046FFF71DFC01212046FFF753
:1013A000D1FB40212046FFF7C9FB012240F2255125
:1013B0002046FFF7F3FB25208DF8000003208DF871
:1013C00001008DF802008DF803606846FFF766FAA9
:1013D00007B0F0BD00000240001001400169D0E9F3
:1013E00001329A60D0E901235A604A68824201D1F1
:1013F00082684A60002202610868401E086008682E
:1014000070470000034B0360A3F5C06008608020B4
:1014100010607047A806002000F1080141604FF0FD
:10142000FF328260C16001610021016070470021CC
:101430000161704730B50C68621C02D000F10802EF
:1014400002E0026904E01A4653681D68A542FAD911
:1014500053684B6099608A60516008610168491C5B
:10146000016030BD42684A6093688B609368596040
:10147000916008610168491C01607047502080F349
:101480001188BFF34F8FBFF36F8F09494868401C25
:10149000486001280AD10748006810F0FF0F05D006
:1014A00040F2B91204A10EA0FEF748BF7047000039
:1014B0005000002004ED00E02E2E5C46726565525F
:1014C000544F535C706F72745C525644535C41527B
:1014D0004D5F434D34465C706F72742E63000000A4
:1014E0004572726F723A25732C25640D0A00000054
:1014F00010B5094C6068002805D14FF4E07207A1CF
:1015000010A0FEF71BFF6068401E6060002801D13C
:1015100080F3118810BD0000500000202E2E5C4684
:1015200072656552544F535C706F72745C525644CE
:10153000535C41524D5F434D34465C706F72742E64
:10154000630000004572726F723A25732C25640D9A
:101550000A00000070B500282CD0083804466068E6
:10156000002805DB40F22F1213A11CA0FEF7E6FEB7
:10157000206828B14FF498720FA118A0FEF7DEFE84
:101580006068002816DA2168002913D120F0004095
:10159000606000F0FDF9154D606869680844686096
:1015A0002046FFF7C7FD2869401C2861BDE8704050
:1015B00000F014BC70BD00002E2E5C4672656552B2
:1015C000544F535C706F72745C4D656D4D616E6706
:1015D0005C686561705F342E630000004572726F55
:1015E000723A25732C25640D0A0000003400002097
:1015F00010B50F484FF47A730E4A0068B0FBF3F150
:1016000091606FF07F44B4FBF1F1D160B0FBF0F179
:101610005E24B4FBF1F111614FF0E02100220A6178
:101620008A61B0FBF3F0401E48610720086110BDDD
:101630000C000020500000202DE9F0410446324DFE
:10164000E868844200D9044672B6BFF34F8FBFF3F7
:101650006F8FFFF723FB30B14FF0E02306271F61A8
:10166000986918B103E062B6BDE8F081A868AA687D
:10167000611E02FB010125480668760103D54FF083
:1016800000760660891A2869814200D9091A5961D1
:1016900000269E61186940F00100186124B1BFF373
:1016A0004F8F30BFBFF36F8F62B6BFF34F8FBFF363
:1016B0006F8F72B6BFF34F8FBFF36F8F1F611869C3
:1016C000C0030DD59869081AA968081A401E2A692E
:1016D000904201D9884200D9481E5861601E09E035
:1016E0009869AA685443211AB1FBF2F0441C544390
:1016F000611A59619E6107211961A968491E5961E2
:1017000000F002F962B6AFE75000002004ED00E0FF
:1017100010B504460020002C10D00E48406B28B1B4
:1017200040F21C520CA112A0FEF708FE00F030F9A6
:1017300000212046FFF704FB00F050FB002807D1F2
:101740000F494FF080500860BFF34F8FBFF36F8F8A
:1017500010BD0000680000202E2E5C4672656552A8
:10176000544F535C7372635C7461736B732E6300CC
:101770004572726F723A25732C25640D0A000000C1
:1017800004ED00E070B50446FFF778FE254D04B97E
:101790002C68201DFFF722FE58B9E06A224A00EBB0
:1017A000800152F8211021B9012181402869884324
:1017B0002861A06A18B104F11800FFF70FFE686AEB
:1017C000401C68622868844207D1211D1748FFF732
:1017D00049FE6868401C686004E0A868401EA86074
:1017E000FFF7D2FCFFF784FE2868844202D020462F
:1017F000FFF75EFB6869002812D0286884420FD189
:10180000686B28B140F2AF4209A10FA0FEF796FD28
:1018100011494FF080500860BFF34F8FBFF36F8FB7
:1018200070BD00006800002040970020FC99002057
:101830002E2E5C4672656552544F535C7372635C26
:101840007461736B732E63004572726F723A257305
:101850002C25640D0A00000004ED00E030B587B0CF
:1018600000240694059404AA05A906A8FFF7CAFD5A
:10187000DDE90510CDE900410290002314A11648CE
:10188000049A00F0B3F9154DE86208B1012000E0B8
:101890000020012802D0401C10D015E0502080F319
:1018A0001188BFF34F8FBFF36F8F4FF0FF30A862E7
:1018B00001206861EC6000F0B5F805E040F6120226
:1018C00007A10DA0FEF73AFD286B07B030BD000060
:1018D00049444C4500000000990F000868000020B2
:1018E0002E2E5C4672656552544F535C7372635C76
:1018F0007461736B732E63004572726F723A257355
:101900002C25640D0A00000070B50446154DE868EA
:10191000A96A2044884205D940F61A2212A118A0CB
:10192000FEF70CFDE868A96A2044884216D1686B6E
:1019300028B940F621220CA111A0FEF7FFFC2CB91A
:1019400040F6222208A10EA0FEF7F8FCFFF796FD54
:10195000A869401CA861FFF7CBFD641EE86820441D
:10196000E86070BD680000202E2E5C4672656552EE
:10197000544F535C7372635C7461736B732E6300BA
:101980004572726F723A25732C25640D0A000000AF
:101990000248416B491C4163704700006800002009
:1019A00070B5144D686B002802D00120E86170BD4D
:1019B0000020E8612869B0FA80F0C0F11F000E4EE7
:1019C00000EB800456F8240028B940F6F6320BA14B
:1019D00010A0FEF7B3FC06EB840041684968416043
:1019E00000F10802914201D1496841604068C06835
:1019F000286070BD68000020409700202E2E5C46B5
:101A000072656552544F535C7372635C7461736B9F
:101A1000732E63004572726F723A25732C25640D24
:101A20000A0000007CB5384C21683848814205D155
:101A30004FF4A37236A140A0FEF780FC2068334922
:101A4000491E884205D140F2471231A13AA0FEF763
:101A500075FC3D4D28780190FF2028702878009073
:101A60009DF800009DF8001000F0F000884205D0BD
:101A70004FF4B07226A130A0FEF760FC9DF8000084
:101A8000324C00F0500020700720606106E0606971
:101A9000401E60619DF80000400000909DF800002D
:101AA0000006F4D46069032805D04FF4BA7218A177
:101AB00021A0FEF743FC6069032805D040F27D12A7
:101AC00013A11DA0FEF73AFC207D000200F4E060A7
:101AD0006061019828700C482030016841F4700161
:101AE0000160016841F070410160FFF781FD002055
:101AF0006060FEF7C5FB1648016841F04041016097
:101B0000FEF7AAFB00207CBD00ED00E071C20F4192
:101B10002E2E5C4672656552544F535C706F727422
:101B20005C525644535C41524D5F434D34465C70A9
:101B30006F72742E630000004572726F723A2573E3
:101B40002C25640D0A00000000E400E05000002095
:101B500034EF00E010B5502080F31188BFF34F8FB1
:101B6000BFF36F8F00F090F818B104494FF0805028
:101B70000860002080F3118810BD000004ED00E033
:101B80002DE9FF5F8146DDE90E788A4616469B46C1
:101B9000B000FFF739FB054628000ED04C20FFF7B8
:101BA00033FB04462CB14C212046FEF76DFC256327
:101BB00004E02846FFF7CEFC00E000249CB10020A2
:101BC00084F84900CDE90240CDE900785B46324611
:101BD00051464846FFF724FA2046FFF7F7F8012060
:101BE00004B0BDE8F09F4FF0FF30F9E72DE9F04F6A
:101BF00085B08046DDE90E75109C894692469B466D
:101C0000002D05D140F23F2215A11BA0FEF796FB47
:101C10002CB94FF4107212A117A0FEF78FFB4C20C5
:101C200003900026BCB1B5B14C212046FEF72CFC38
:101C30002563022084F8490004A8CDE90070CDE9AD
:101C400002465B46524649464046FFF7E9F92046C0
:101C5000FFF7BCF800E00496049805B0BDE8F08FEB
:101C60002E2E5C4672656552544F535C7372635CF2
:101C70007461736B732E63004572726F723A2573D1
:101C80002C25640D0A0000002DE9F0410025474E87
:101C9000706B002805D0B069401CB0612846BDE8D3
:101CA000F081F468641CF4608CB9B06B006828B1F2
:101CB00040F6B7223EA144A0FEF740FBB06BF16BAB
:101CC000B163F063306A401C3062FFF75DFAB06ABE
:101CD000414F84420FD34FF0000CB06B006838B115
:101CE000B06BC068C1684868844212D2B06202E03A
:101CF0004FF0FF30B0623068C06A00EB800057F8E8
:101D00002000012800D90125F0690028C6D001254E
:101D1000C4E74A69D1E902309860D1E9020358600A
:101D200050680B1D984201D1C8685060C1F814C0BA
:101D30001068401E10608A6A9AB1D1E90780C8F81D
:101D40000800D1E90708C8F80400506801F1180834
:101D5000404501D1086A5060C1F828C01068401E93
:101D60001060C86A0122D6F81080824042EA080258
:101D7000326100EB800007EB800042688A60906867
:101D8000C860906843609360C86A00EB800007EB0E
:101D900080024A6157F82020521C47F82020C86A68
:101DA0003168C96A884298D9012596E76800002001
:101DB0002E2E5C4672656552544F535C7372635CA1
:101DC0007461736B732E63004572726F723A257380
:101DD0002C25640D0A000000409700202DE9F041F9
:101DE0000024A046434D686B002805D140F68502CB
:101DF00041A147A0FEF7A2FAFFF740FB686B401E27
:101E00006863686B002870D1A86800286DD000272F
:101E1000434A01264DE0D068C468A16AD4E907307E
:101E20009860D4E9070358604B6804F118008342B6
:101E300001D1206A4860A7620868401E0860616995
:101E4000D4E902309860D4E9020358604B68201D41
:101E5000834201D1E3684B6067610B685B1E0B60D6
:101E6000E16AD5F810C006FA01F343EA0C032B61CE
:101E70002C4B01EB810103EB81014968A160D1F892
:101E800008C0C4F80CC0D1F808C0CCF804008860C1
:101E9000E06A00EB800003EB8001616153F82010E1
:101EA000491C43F82010E06A2968C96A884200D3B7
:101EB000EE6110680028AED10CB1FFF765F9AC698E
:101EC0003CB1FFF7E1FE00B1EE61641E002CF8D1D9
:101ED000AF61E86948B14FF0010813494FF08050F5
:101EE0000860BFF34F8FBFF36F8FFFF701FB4046D2
:101EF000BDE8F081680000202E2E5C4672656552B8
:101F0000544F535C7372635C7461736B732E630024
:101F10004572726F723A25732C25640D0A00000019
:101F2000E89900204097002004ED00E04FF0407059
:101F3000E1EE100A70470000581F00080000002062
:101F4000A8000000C401000800200008A80000202C
:101F5000E09F0000E0010008000000000000000019
:101F600000000000007A030A0000000000000000EA
:101F7000010203040607080900000000010203042F
:101F80000102030406070809000000000000000029
:101F90000000000000000000000000000000000041
:101FA000000000000000000000000000AAAAAAAA89
:101FB0000000000000000000000000000000000021
:101FC0000000000000000000000000000000000011
:101FD0000000000000000000000000000000000001
:101FE00000000000000000000000000000000000F1
:101FF0001F000000000000000000000000000000C2
:040000050800018965
:00000001FF
