:020000040800F2
:10000000E0A10020F9020008EF0B0008A309000896
:10001000ED0B0008F10800082510000800000000A2
:10002000000000000000000000000000390200088D
:10003000F30800080000000095020008FD0D00080C
:100040001303000813030008130300081303000838
:100050001303000813030008130300081303000828
:100060001303000813030008130300081303000818
:100070001303000813030008130300081303000808
:1000800013030008130300081303000813030008F8
:1000900013030008130300081303000813030008E8
:1000A00013030008130300081303000813030008D8
:1000B00013030008130300081303000813030008C8
:1000C00013030008130300081303000813030008B8
:1000D000130300085D0E0008130300081303000853
:1000E0001303000813030008130300081303000898
:1000F0001303000813030008130300081303000888
:100100001303000813030008130300081303000877
:100110001303000813030008130300081303000867
:100120001303000813030008130300081303000857
:100130001303000813030008130300081303000847
:100140001303000813030008130300081303000837
:100150001303000813030008130300081303000827
:100160001303000813030008130300081303000817
:100170001303000813030008130300081303000807
:10018000130300081303000800F002F800F044F81D
:100190000AA090E8000C82448344AAF10107DA45E2
:1001A00001D100F039F8AFF2090EBAE80F0013F0F0
:1001B000010F18BFFB1A43F001031847A0340000D9
:1001C000C0340000103A24BF78C878C1FAD852076A
:1001D00024BF30C830C144BF04680C6070470000C1
:1001E0000023002400250026103A28BF78C1FBD840
:1001F000520728BF30C148BF0B607047642900F028
:100200000781732900F01B82002070471FB503F09F
:100210001FFA1FBD10B510BD00F076FA1146FFF7AA
:10022000F5FF00F029FF00F094FA03B4FFF7F2FFA6
:1002300003BC00F0F8FE00002C4B19680868B0E819
:10024000F04F80F30988BFF36F8F4FF0000080F309
:10025000118870470000000008480068006880F3BB
:1002600008884FF0000080F3148862B661B6BFF3CF
:100270004F8FBFF36F8F00DF00BF00BF08ED00E0BE
:10028000DFF80C00016841F470010160704700BFA5
:1002900088ED00E0EFF30980BFF36F8F134B1A680E
:1002A0001EF0100F08BF20ED108A20E9F04F1060FB
:1002B00009B44FF0500080F31188BFF34F8FBFF3A4
:1002C0006F8F02F039F94FF0000080F3118809BCFC
:1002D00019680868B0E8F04F1EF0100F08BFB0ECC6
:1002E000108A80F30988BFF36F8F70477800002071
:1002F000EFF3058070470000094880470948004730
:10030000FEE7FEE7FEE7FEE7FEE7FEE7FEE7FEE7C5
:10031000FEE7FEE704480549054A064B7047000022
:10032000010E000889010008E09B0020E0A10020E8
:10033000E09D0020E09D0020704700000FB40449BC
:1003400010B503AA029800F07FF910BC5DF814FB09
:10035000400000202DE9F0410E46044600202062B6
:100360002046E168884730B3252805D0D4E901212B
:100370009047206A401CF2E7E16820460027884742
:10038000050018D0A5F14100192802D820354FF4F6
:1003900000673246294620462760FFF72FFF40B10D
:1003A000012804D0F61D26F007060836D8E7361DCA
:1003B000D6E72846DAE7206ABDE8F08170B50C463A
:1003C0000546012A05D02878800600D5EA69002371
:1003D00002E0012305E05B1C934202D2E05C0028AE
:1003E000F9D1A869E618C01AA861286A18442862D9
:1003F0002846AFF3008004E0D5E9012114F8010B91
:100400009047B442F8D32846AFF3008070BD000097
:100410002DE9F0410646002410687529314616A5DD
:1004200010D0AFF30080002802DA404213A507E0A5
:1004300031688A0701D512A502E0490704D511A544
:10044000012401E0AFF3008000210A2206F1240715
:1004500009E0B0FBF2FCB0FBF2F302FB1C00303011
:1004600078541846491C0028F3D123462A463046C2
:10047000BDE8F04100F078B8000000002D00000059
:100480002B00000020000000032A40F2308010F012
:10049000030C00F0158011F8013BBCF1020F62441F
:1004A00098BF11F801CB00F8013B38BF11F8013BB0
:1004B000A2F1040298BF00F801CB38BF00F8013B5D
:1004C00011F0030300F0D280083AC0F0088051F820
:1004D000043B083A51F804CBA0E80810F5E7121DD8
:1004E0005CBF51F8043B40F8043BAFF30080D207F7
:1004F00024BF11F8013B11F801CB48BF11F8012BC3
:1005000024BF00F8013B00F801CB48BF00F8012BE5
:1005100070474FF0000200B51346944696462039C6
:1005200022BFA0E80C50A0E80C50B1F12001BFF4AC
:10053000F7AF090728BFA0E80C5048BF0CC05DF812
:1005400004EB890028BF40F8042B08BF704748BF60
:1005500020F8022B11F0804F18BF00F8012B7047D4
:1005600070477047704770472DE9F0470D46994630
:100570009246044600F124080168880604D5E06923
:1005800021F01001216000E00120A84201DD471B9D
:1005900000E00027A1697A1902EB0900081AA0619E
:1005A0002078C00602D42046AFF30080002608E081
:1005B000D4E901211AF806009047206A401C761CF5
:1005C00020624E45F4DB2078C0060AD52046AFF302
:1005D000008006E0D4E9012130209047206A401CC9
:1005E0002062381EA7F10107F4DC07E0D4E90121FD
:1005F00018F805009047206A401C2062281EA5F1CB
:100600000105F3DC2046AFF300802078000602D518
:100610000220BDE8F0870120FBE710B5436913B164
:10062000AFF3008001E0FFF7C9FE012010BD127892
:1006300000F124010A7000224A700122EDE71168DE
:100640004FF0FF32E9E70000074B70B50D467B44E1
:1006500000F043F80446284600F052F810B14FF07D
:10066000FF3070BD204670BD130A000010B5203A5F
:10067000C0F00B80B1E81850203AA0E81850B1E85B
:100680001850A0E81850BFF4F5AF5FEA027C24BF11
:10069000B1E81850A0E8185044BF18C918C0BDE808
:1006A00010405FEA827C24BF51F8043B40F8043BD1
:1006B00008BF7047D20728BF31F8023B48BF11F886
:1006C000012B28BF20F8023B48BF00F8012B7047E0
:1006D00001694A1C02610878704700B58FB0CDE906
:1006E00001310021059105497944CDE903101146F6
:1006F0006846FFF72FFE0FB000BD0000E5FFFFFFCB
:10070000007B00F080007047754600F02BF8AE4685
:1007100005006946534620F00700854618B020B50D
:10072000FFF7F8FDBDE820404FF000064FF000074E
:100730004FF000084FF0000B21F00701AC46ACE889
:10074000C009ACE8C009ACE8C009ACE8C0098D46F6
:10075000704710B50446AFF300802046BDE8104056
:10076000FFF763BD00487047809B00207CB50322E3
:100770000021012002F020F8224CA06001F02AFBA9
:1007800004F110000721CDE900104FF4007500239B
:100790002A461DA11F4802F03BFC012826D01EA0BE
:1007A000FFF7CCFD174806211430CDE900100023D7
:1007B0002A4620A1224802F02BFC01281AD021A0B1
:1007C000FFF7BCFD2648002300901A460A2125A009
:1007D00002F08CFEA06188B125A0FFF7AFFDE068B4
:1007E00001F01EFDBDE87C4001F02EBB29A0FFF703
:1007F000A5FDD7E72EA0FFF7A1FDE3E733A0FFF7A4
:100800009DFDECE7000000204B65795F5461736B40
:10081000000000001D0B000844656C6574655F54A2
:1008200061736B20C8CECEF1B4B4BDA8CAA7B0DC4A
:10083000210D0A0055617274315F5461736B0000C1
:10084000F10F000855617274315F5461736B20C8F9
:10085000CECEF1B4B4BDA8CAA7B0DC210D0A000009
:10086000BD25000854696D65725F4B657900000015
:100870007854696D65725F4B657920B6A8CAB1C6B8
:10088000F7C8CECEF1B4B4BDA8B3C9B9A6210D0A3C
:100890000000000044656C6574655F5461736B20F3
:1008A000C8CECEF1B4B4BDA8B3C9B9A6210D0A0013
:1008B00055617274315F5461736B20C8CECEF1B450
:1008C000B4BDA8B3C9B9A6210D0A00007854696D5A
:1008D00065725F4B657920B6A8CAB1C6F7C8CECE9F
:1008E000F1B4B4BDA8CAA7B0DC210D0A0000000015
:1008F000FEE770472DE9F041002201274FF0030C7D
:1009000007FA02F50B682B40AB422CD10668530066
:100910000CFA03F4A64306600E79D0F800809E40DE
:1009200046EA080606600E79012E01D0022E12D189
:100930008668A64386604E79D0F808809E4046EAD5
:10094000080686604668AE43466045688E799640E4
:10095000B6B235434560C568A543C560CC799C40B7
:10096000C3681C43C460521C102AC9D3BDE8F0817F
:1009700010B54B07DB0E9A40C90800EB8100016AF5
:100980000F249C40A1430162016A1143016210BD22
:100990000246002012690A4200D00120704781619E
:1009A0007047FEE77CB50121202000F05FF90020B0
:1009B0008DF8040002248DF80740012000900B4DB3
:1009C00069462846FFF796FF009469462846FFF7D8
:1009D00091FF0421009169462846FFF78BFF08210B
:1009E000009169462846FFF785FF7CBD0014024050
:1009F0001CB50121202000F039F901208DF80400F8
:100A000000218DF806108DF807008DF80500009084
:100A10000B4C69462046FFF76DFF022100916946A5
:100A20002046FFF767FF0421009169462046FFF743
:100A300061FF0821009169462046FFF75BFF1CBD5E
:100A4000001402401CB50121202000F00FF9002005
:100A50008DF8040002208DF80700102000900C4C47
:100A600069462046FFF746FF20210091694620464F
:100A7000FFF740FF4021009169462046FFF73AFF0B
:100A80008021009169462046FFF734FF1CBD00001D
:100A9000001402401CB50121202000F0E7F80120DD
:100AA0008DF8040000218DF806108DF807008DF8F0
:100AB0000500102000900C4C69462046FFF71AFFF5
:100AC0002021009169462046FFF714FF4021009144
:100AD00069462046FFF70EFF8021009169462046B7
:100AE000FFF708FF1CBD0000001402401CB50121E7
:100AF000022000F0BBF84FF48070009000208DF8C9
:100B0000040003208DF8050001208DF807006946D8
:100B10000148FFF7EFFE1CBD0004024008B50025A8
:100B2000164C27E0207810B901F04AF828B920784F
:100B3000012811D101F024F870B102F0FBFA02464D
:100B4000009500230221A06902F032FD01206070AF
:100B50000BA0FFF7F3FB0AE02078022807D101F091
:100B60002FF820B92570A1780EA0FFF7E7FB02202F
:100B700001F01CFB60780028F9D1D3E700000020C9
:100B8000D5E2C0EFCAC7BDF8C8EBC8EDBCFEB6A839
:100B9000CAB1C6F7B7FECEF1BAAFCAFDD6AEC7B07E
:100BA0000D0A000025640D0A000000007CB501213B
:100BB000202000F05BF84FF4C064009401208DF811
:100BC000040000228DF8062003228DF805208DF800
:100BD0000700054D69462846FFF78CFE214628464A
:100BE000FFF7DDFE7CBD000000140240FEE7704709
:100BF00030B50F23C27801250178002A1FD0154A8D
:100C0000126802F4E062C2F5E062C2F30722C2F1A8
:100C10000404D3404278A24084781C40144322014B
:100C200001F1E02181F80024007800F01F018D40DF
:100C30004009800000F1E020C0F8005130BD01F013
:100C40001F0085404809800000F1E020C0F8805175
:100C500030BD00000CED00E0024908430249086085
:100C6000704700000000FA050CED00E0054A00297D
:100C700003D011680143116070471168814311600E
:100C80007047000030380240054A002903D011683F
:100C90000143116070471168814311607047000083
:100CA0004438024070B5244B196801F00C01234C04
:100CB00000291ED0661004291DD008291DD004600B
:100CC000196801F0F00109091D4A545C0168E1400E
:100CD00041601C6804F4E054A40A145D21FA04F491
:100CE00084601B6803F460435B0BD25CD140C1603D
:100CF00070BD0460E4E70660E2E70F4A121F116866
:100D0000C1F38055116801F03F0135B1B6FBF1F137
:100D10001468C4F38814614305E0B4FBF1F114686E
:100D2000C4F3881461431268C2F30142521C52009A
:100D3000B1FBF2F10160C3E7083802400024F4007F
:100D4000300000200CB5002201920092274908686B
:100D500040F4803008604FF4A043086800F400308D
:100D600000900198401C0190009810B90198984299
:100D7000F3D10868800302D50120009000E00092C2
:100D80000098012831D119484030026842F0805261
:100D900002601748026842F440420260134808307B
:100DA00002680260026842F400420260026842F493
:100DB000A0520260021F0F4B13600A6842F080725B
:100DC0000A600A689201FCD50B4A40F20571116075
:100DD000016821F003010160016841F00201016036
:100DE0000168C1F381010229FAD10CBD003802402B
:100DF0000070004008544007003C024001F0C6BCAF
:100E000010B51248016841F4700101601048016892
:100E100041F0010101600E4A0021083211600268B0
:100E20000C4B1A400260031D0B4A1A60026822F440
:100E30008022026006480C300160FFF783FF0349FF
:100E40004FF000608039086010BD000088ED00E0C0
:100E500000380240FFFFF6FE1030002470B50B4D45
:100E600040F22551284600F025F800280CD0084C07
:100E7000A068002808D0284600F0B6F8A068BDE8B1
:100E80007040002101F0BEBE70BD000000100140A6
:100E9000000000208A05C94301807047002904D062
:100EA000818941F4005181817047818921F4005189
:100EB0008181704770B5002440F66A12C1F3421375
:100EC00001F01F05012606FA05F2012B0CD0022BBA
:100ED0000DD0838A1340090A8E40008830400BB140
:100EE00000B10124204670BD83891340F3E7038AD3
:100EF0001340F0E710B540F66A13C1F3421301F056
:100F00001F040121A140012B07D0022B07D0143070
:100F10003AB102680A43026010BD0C30F8E71030A5
:100F2000F6E702688A43026010BD00007FB5044600
:100F30000D46208A20F44051E88808432082A08989
:100F400041F20C618843A9882A8911436A890243C6
:100F50001143A181A08A20F44071A8890843A0828E
:100F60006846FFF79FFE1E48844202D01D48844217
:100F700001D1039800E00298A189090408D500EB8B
:100F8000C00101EB001029684900B0FBF1F007E057
:100F900000EBC00101EB001029688900B0FBF1F003
:100FA0006422B0FBF2F109010B096FF018056B43E5
:100FB00000EB8300A3891D044FF0320307D503EB38
:100FC000C000B0FBF2F000F00700084306E003EBBE
:100FD0000010B0FBF2F000F00F00084320817FBD4D
:100FE00000100140001401408088C0F308007047E1
:100FF0004FF0FF35054C02E005A0FFF79FF92946A9
:10100000A06801F013FF0128F9D1F5E700000020E6
:10101000D5E2C0EFCAC7B4AEBFDAD6D0B6CF210D85
:101020000A000000FEE7704701200C49096800290A
:1010300001D0002070470A49CA690AB100207047F0
:101040008A690AB100207047044A28321268896808
:10105000491E8A42F7D10220704700005C9A0020A6
:101060007800002003490A885206FCD5C2B28A8063
:1010700070470000001001401CB54FF44070FFF7AE
:10108000EBFD4FF4E13000F0E9FDFFF78FFDFFF7D6
:101090002DFDFFF7ADFCFFF7D5FC00F0B3FD0948CF
:1010A0000021CDE900100B464FF4007206A10A485A
:1010B00001F0AEFF012802D04FF0FF301CBD01F05F
:1010C00095F9FEE70C0000204170705461736B438A
:1010D00072656174650000006D0700082DE9F0413C
:1010E00004460F461E4DEE682868001D00F010FEF5
:1010F00038B9286890F82C1001208840296981436C
:101100002961601C15D1A7B1164948682A6890600A
:1011100082682B68DA602A688368121D5A602A6820
:10112000121D8260286841610868401C0860BDE8A3
:10113000F081344428684460B44206D22968E86BE0
:10114000091DBDE8F04100F021BE2968A86B091D0A
:1011500000F01CFEA86A8442E9D2AC62E7E7000016
:1011600078000020849A002070B5044600F032FE1A
:10117000244DA868401CA860286810B1686938B17F
:101180000CE02C60A868012808D100F03BFA05E0CB
:101190002868E16AC06A884200D82C60686A401CEE
:1011A0006862E06A01212A69814011432961164A77
:1011B00000EB800002EB80004068A0608168E16085
:1011C0008368211D59608160E06A00EB800002EBBA
:1011D0008001616152F82010491C42F8201000F093
:1011E00033FE686900280CD02868E16AC06A88422A
:1011F00007D206494FF080500860BFF34F8FBFF30E
:101200006F8F70BD78000020B497002004ED00E0DF
:1012100038B500F0DFFD104C2068C8B90F4800F069
:10122000A7FD0E48143000F0A3FD0C48E060143018
:1012300020610A4B0020C03B009003F148020C21C2
:101240000A2001F0F7FA206010B105A100F050FF6C
:10125000BDE8384000F0F8BDB8000020589B0020E1
:10126000546D72510000000070B50C4D0C4E11E031
:1012700000F0B0FDF068C468201D00F049FDA868CA
:10128000401EA8606868401E686000F0DDFD2046D2
:1012900000F04AF868680028EAD170BD78000020A4
:1012A000709A002030B40B46026C002A0CD0C16842
:1012B0001144C1608468A14201D30168C160C16862
:1012C00030BC1846FFF7E0B830BC70472DE9F0415C
:1012D000044617460026A56B226C002A1FD07FB15A
:1012E000E068FFF7D1F8E168206C091AE160226834
:1012F000914202D2A168081AE060022F0DD00EE0E0
:101300006068FFF7C1F8216C606808446060A168FC
:10131000884204D32068606001E005B16D1E6D1C39
:10132000A5633046BDE8F08110B5044694F8490045
:1013300000280BD0012811D0022814D0BDE810409D
:1013400040F6957208A10EA0FEF7F8BF206B00F0E2
:10135000ADFD2046BDE8104000F0A8BD2046BDE828
:10136000104000F0A3BD10BD2E2E5C467265655284
:10137000544F535C7372635C7461736B732E6300C0
:101380004572726F723A25732C25640D0A000000B5
:1013900000200B490A69012A00D901200A68D26A93
:1013A0000AB100207047074A1268012A01D90020BB
:1013B000704708B100207047886AC968401A7047B2
:1013C00078000020B49700200749CA6811680029F6
:1013D00004D00021016019B1002070470121F9E714
:1013E000D068006870470000B80000204FF410413A
:1013F0000E48420706D0C01D20F007000B49411AD5
:10140000C1F510410A4B186000225A6001440839A6
:1014100021F00701143B19604A600A600A1A426011
:1014200001604068986058607047000064070020C1
:1014300058000020144D4FF08056144F144C40F6C5
:10144000B958FFF711FF2868012804D93E60BFF39F
:101450004F8FBFF36F8FFFF79BFF0228F1D301F08F
:1014600063F8A06AE168884204D2424609A10FA04D
:10147000FEF764FFFFF78CFF022801D300F088FD20
:1014800001F08CFFDDE70000B497002004ED00E0E0
:10149000780000202E2E5C4672656552544F535CD6
:1014A0007372635C7461736B732E63004572726F49
:1014B000723A25732C25640D0A000000034600983B
:1014C000002905D00260C3630164012101F0F6B96F
:1014D0000060F8E72DE9F047DDE908580A9C8146ED
:1014E0000E469A46206B521E00EB820020F0070742
:1014F000780705D040F25D321BA121A0FEF71EFF48
:1015000066B100202218315C82F83410315C11B1D0
:10151000401C1028F6D3002084F84300202D05D36A
:1015200040F2923210A116A0FEF708FF202D00D342
:101530001F25E562201D00F026FC04F1180000F0D4
:1015400022FC2461C5F12000A06164625246494634
:10155000384600F003FB2060B8F1000F01D0C8F856
:101560000040BDE8F08700002E2E5C467265655293
:10157000544F535C7372635C7461736B732E6300BE
:101580004572726F723A25732C25640D0A000000B3
:101590002DE9F047DDE9089406460D4617469846C2
:1015A000002D05D140F26B120BA112A0FEF7C6FE72
:1015B000FFF72EFE2660A561C4F81C80C4F82090B9
:1015C000201D00F0E0FB002F04D014F8240F40F0A1
:1015D00004002070BDE8F0872E2E5C4672656552CF
:1015E000544F535C7372635C74696D6572732E63E0
:1015F000000000004572726F723A25732C25640D4D
:101600000A00000070B50024114D04EB840005EBC6
:10161000800000F0ADFB641C202CF6D30D4800F0D8
:10162000A7FB0C48143000F0A3FB0A48283000F058
:101630009FFB08483C3000F09BFB0648503000F010
:1016400097FB0548034981631431C16370BD0000F5
:10165000B4970020349A00207800002030B5134958
:1016600000E011460A688242FBD34B685C18844252
:1016700003D140681844486008460D684468231840
:10168000AB420DD1094B143B1B689A4206D05268FD
:10169000224442600A681268026002E0036000E0CF
:1016A0000260814200D0086030BD00005800002078
:1016B00070B50024416000610C4D91420AD8D11AE6
:1016C0008269914201D301240EE0011D286900F0D6
:1016D0005DFB09E09A4203D2994201D3012403E061
:1016E000011DE86800F052FB204670BDB8000020E4
:1016F00010B5044600F06EFBA06B20B1002400F092
:10170000A3FB204610BD0124F9E710B5044600F004
:1017100061FBA06BE16B884201D1012400E0002451
:1017200000F092FB204610BD70B505460E460D48F0
:10173000C068C068C468201D00F0EAFA94F824006C
:10174000410705D532462946204600F0C9F803E096
:1017500000F0FE0084F824002046216ABDE87040B5
:1017600008470000B80000207FB5364E62E00198BF
:1017700000285FDB039C606910B1201D00F0C8FAEF
:10178000684600F0D1F8054601980A2852D2DFE8F1
:1017900000F0510505282E450505282E94F8240053
:1017A00040F0010084F824000298A1690346014436
:1017B0002A462046FFF77CFF78B394F824004107BF
:1017C00007D50298A1692A460144204600F088F80E
:1017D00003E000F0FE0084F82400216A20468847D8
:1017E00028E014F8240F00F0FE00207022E094F8A6
:1017F000240040F0010084F824000298A06128B978
:1018000040F25E3210A117A0FEF798FDA0692B46AA
:1018100041192A462046FFF74BFF0BE094F82400BD
:10182000810703D4204600F041FB03E000F0FE00F6
:1018300084F82400002201A9306801F04DFA002844
:1018400095D17FBDB80000202E2E5C467265655292
:10185000544F535C7372635C74696D6572732E636D
:10186000000000004572726F723A25732C25640DDA
:101870000A000000F8B506460D4600F055FE684621
:1018800000F052F80446009810B101F087FDF8BD51
:1018900045B9A64206D801F081FD21463046FFF742
:1018A00043FFF8BD0C481DB10169096891B10025DD
:1018B000311B2A46006800F055FC01F06FFD00283E
:1018C000EFD106494FF080500860BFF34F8FBFF350
:1018D0006F8FF8BD0125EBE7B800002004ED00E0B4
:1018E00070B505460C46164604E0A8690444296A0A
:1018F00028468847A8692346011932462846FFF73B
:10190000D7FE0028F1D170BD0648816B0968002917
:1019100004D0816BC9680968816270474FF0FF315C
:10192000816270477800002070B5054601F002FC26
:101930000446074EB068844204D200F00BF8012040
:10194000286001E000202860B460204670BD0000DF
:10195000B800002070B5094C4FF0FF3504E0C068B6
:1019600000682946FFF7E0FEE0680268002AF6D129
:10197000E0682169E160206170BD0000B8000020CE
:1019800008484068401C04D0EC2207A110A0FEF7D4
:10199000D5FC502080F31188BFF34F8FBFF36F8FBA
:1019A000FEE70000600000202E2E5C467265655246
:1019B000544F535C706F72745C525644535C415286
:1019C0004D5F434D34465C706F72742E63000000AF
:1019D0004572726F723A25732C25640D0A0000005F
:1019E00008B56846FFF7F0FC0099FFF743FFFFF7E3
:1019F000BBFEF6E72DE9F041044600F0EBF994F95F
:101A0000455004F1240609E0606A48B1304601F00F
:101A100041FC08B100F078FC6D1E6DB2002DF3DCC6
:101A20004FF0FF3684F8456000F00EFA00F0D2F96E
:101A300094F9445004F1100709E0206948B1384690
:101A400001F028FC08B100F05FFC6D1E6DB2002DA6
:101A5000F3DC84F84460BDE8F04100F0F5B9000023
:101A60002DE9F0410546002600F05EFD2D4F386857
:101A700008B9FFF7BBFC4DB105F00700C0F110003D
:101A8000C1438D4201D8054400E00025002D3CDD16
:101A90007868854239D8234914310846046801E042
:101AA000214604466068A84202D220680028F7D187
:101AB0003868844229D00E6808362068086060685B
:101AC000401B102811D904EB05085FEA487004D0C8
:101AD000DC2215A11DA0FEF731FC6068401BC8F890
:101AE000040065604046FFF7B9FD61687868401AF8
:101AF0007860BA68904200D2B86041F000406060FF
:101B000000202060F868401CF86001F047FC700776
:101B100005D04FF48E7204A10CA0FEF70FFC3046E6
:101B2000BDE8F081440000202E2E5C4672656552AF
:101B3000544F535C706F72745C4D656D4D616E6790
:101B40005C686561705F342E630000004572726FDF
:101B5000723A25732C25640D0A00000024384FF0DA
:101B60008073036221F00101C16104498161426017
:101B70006FF0020140F82019704700008119000839
:101B800070B50E4D01212846FEF702FF04460221E2
:101B90002846FEF7FDFE4006000E044304212846B9
:101BA000FEF7F6FE8006000E044308212846FEF7E5
:101BB000EFFEC006000E0443204670BD0014024034
:101BC00070B50F4D10212846FEF7E2FE0007040E07
:101BD00020212846FEF7DCFE4007010E0C43402181
:101BE0002846FEF7D5FE8007010E0C4380212846CB
:101BF000FEF7CEFEC007010E44EA010070BD0000F2
:101C00000014024010B5094C01212046FEF7C7FE22
:101C100002212046FEF7C3FE04212046FEF7BFFE48
:101C20002046BDE810400821FEF7B9BE001402406E
:101C300010B5094C10212046FEF7B1FE20212046A8
:101C4000FEF7ADFE40212046FEF7A9FE2046BDE886
:101C500010408021FEF7A3BE00140240F0B587B00B
:101C6000054601210846FFF701F801211020FFF782
:101C70000BF8254F072209213846FEF779FE072287
:101C80000A213846FEF774FE4FF4C060059002202A
:101C90008DF818008DF8190000248DF81A400126DF
:101CA0008DF81B6005A93846FEF724FE0195ADF8B6
:101CB0000840ADF80A40ADF80C40ADF810400C20DB
:101CC000ADF80E00114D01A92846FFF72FF90121AB
:101CD0002846FFF7E3F840212846FFF7DBF801220A
:101CE00040F225512846FFF705F925208DF8000020
:101CF00005208DF801008DF802408DF803606846DC
:101D0000FEF776FF07B0F0BD000002400010014072
:101D10000169D0E901329A60D0E901235A604A682A
:101D2000824201D182684A60002202610868401E36
:101D3000086008687047000001488068704700002C
:101D400078000020034B0360A3F5C060086080208A
:101D500010607047CC060020044B0360A3F24C4097
:101D600008604FF480701060704700001807002072
:101D700000F1080141604FF0FF328260C1600161F3
:101D800000210160704700210161704730B50C6887
:101D9000621C02D000F1080202E0026904E01A4667
:101DA00053681D68A542FAD953684B6099608A60F0
:101DB000516008610168491C016030BD42684A6099
:101DC00093688B6093685960916008610168491C51
:101DD00001607047502080F31188BFF34F8FBFF32D
:101DE0006F8F09494868401C486001280AD107489C
:101DF000006810F0FF0F05D040F2B91204A10EA048
:101E0000FEF79CBA704700006000002004ED00E07F
:101E10002E2E5C4672656552544F535C706F72741F
:101E20005C525644535C41524D5F434D34465C70A6
:101E30006F72742E630000004572726F723A2573E0
:101E40002C25640D0A00000010B5094C60680028BC
:101E500005D14FF4E07207A110A0FEF76FFA606899
:101E6000401E6060002801D180F3118810BD000081
:101E7000600000202E2E5C4672656552544F535C04
:101E8000706F72745C525644535C41524D5F434DC7
:101E900034465C706F72742E630000004572726F7E
:101EA000723A25732C25640D0A00000070B50028D5
:101EB0002CD0083804466068002805DB40F22F1259
:101EC00013A11CA0FEF73AFA206828B14FF49872CB
:101ED0000FA118A0FEF732FA6068002816DA216810
:101EE000002913D120F00040606000F01DFB154D6B
:101EF00060686968084468602046FFF7AFFB28699E
:101F0000401C2861BDE8704001F048BA70BD000077
:101F10002E2E5C4672656552544F535C706F72741E
:101F20005C4D656D4D616E675C686561705F342EF8
:101F3000630000004572726F723A25732C25640DA0
:101F40000A0000004400002010B50F484FF47A73D7
:101F50000E4A0068B0FBF3F191606FF07F44B4FB70
:101F6000F1F1D160B0FBF0F15E24B4FBF1F111614D
:101F70004FF0E02100220A618A61B0FBF3F0401EBD
:101F800048610720086110BD1C000020600000208F
:101F90002DE9F0410446324DE868844200D90446F8
:101FA00072B6BFF34F8FBFF36F8FFFF73DF830B1BD
:101FB0004FF0E02306271F61986918B103E062B66D
:101FC000BDE8F081A868AA68611E02FB01012548EE
:101FD0000668760103D54FF000760660891A2869F5
:101FE000814200D9091A596100269E61186940F0A2
:101FF0000100186124B1BFF34F8F30BFBFF36F8F63
:1020000062B6BFF34F8FBFF36F8F72B6BFF34F8FC0
:10201000BFF36F8F1F611869C0030DD59869081A47
:10202000A968081A401E2A69904201D9884200D93D
:10203000481E5861601E09E09869AA685443211A35
:10204000B1FBF2F0441C5443611A59619E610721AF
:102050001961A968491E596100F022FA62B6AFE71A
:102060006000002004ED00E010B5FEF741F9104CCF
:1020700010280CD300F1E02090F8F003217888427A
:1020800005D240F24E320BA114A0FEF757F91748C3
:102090000068616900F4E060884207D9BDE810403B
:1020A00040F25E3203A10DA0FEF748B910BD00005A
:1020B000600000202E2E5C4672656552544F535CC2
:1020C000706F72745C525644535C41524D5F434D85
:1020D00034465C706F72742E630000004572726F3C
:1020E000723A25732C25640D0A0000000CED00E007
:1020F00070B505460E460024002D05D140F6D822C5
:102100000DA113A0FEF71AF98EB10022144800EBBE
:10211000C2035968A94202D100EBC20407E01CB90E
:1021200050F8321001B91C46521C0A2AEFD3002C79
:1021300001D02660656070BD2E2E5C4672656552CA
:10214000544F535C7372635C71756575652E6300E3
:102150004572726F723A25732C25640D0A000000D7
:102160006497002070B504460D461646FFF732FE10
:1021700094F944304FF000005B1C01D184F8440016
:1021800094F94510491C01D184F84500FFF75CFE25
:10219000A06B28B93246294604F1240000F0E8F883
:1021A0002046BDE87040FFF725BC000010B504468E
:1021B0000020002C10D00E48406B28B140F21C5279
:1021C0000CA112A0FEF7BAF800F0AEF900212046EB
:1021D000FEF784FF01F0E2F8002807D10F494FF025
:1021E00080500860BFF34F8FBFF36F8F10BD0000AA
:1021F000780000202E2E5C4672656552544F535C69
:102200007372635C7461736B732E63004572726FDB
:10221000723A25732C25640D0A00000004ED00E0DD
:1022200070B50446FFF7D6FD254D04B92C68201D76
:10223000FFF76EFD58B9E06A224A00EB800152F8C0
:10224000211021B901218140286988432861A06AB1
:1022500018B104F11800FFF75BFD686A401C686262
:102260002868844207D1211D1748FFF7A7FD686839
:10227000401C686004E0A868401EA860FFF744FBAB
:10228000FFF7E2FD2868844202D02046FFF74CF8B1
:102290006869002812D0286884420FD1686B28B181
:1022A00040F2AF4209A10FA0FEF748F811494FF0E4
:1022B00080500860BFF34F8FBFF36F8F70BD000079
:1022C00078000020B4970020709A00202E2E5C46E3
:1022D00072656552544F535C7372635C7461736BC7
:1022E000732E63004572726F723A25732C25640D4C
:1022F0000A00000004ED00E002490A6A0260C968B1
:10230000416070477800002001490120C861704792
:102310007800002070B504460D46002C05D140F62B
:102320000E4208A10DA0FEF709F8104801682046EA
:102330001831FFF72BFD2846BDE870400121FEF75C
:10234000CDBE00002E2E5C4672656552544F535C24
:102350007372635C7461736B732E63004572726F8A
:10236000723A25732C25640D0A00000078000020C5
:1023700070B504460D461646002C05D140F6444281
:102380000FA115A0FDF7DAFF606817490A68D06150
:1023900082680B681A620A68836818325A600A6891
:1023A00018328260086884622068401C20600EB188
:1023B0004FF0FF3531462846BDE87040FEF78EBE2F
:1023C0002E2E5C4672656552544F535C7372635C8B
:1023D0007461736B732E63004572726F723A25736A
:1023E0002C25640D0A0000007800002030B587B06D
:1023F00000240694059404AA05A906A8FFF7A2FCE8
:10240000DDE90510CDE900410290002316A118482E
:10241000049A00F033FE174DE86208B1012000E095
:102420000020012801D101F07BF8012802D0401CD6
:1024300010D015E0502080F31188BFF34F8FBFF309
:102440006F8F4FF0FF30A86201206861EC6000F0F0
:1024500005F905E040F6120207A10DA0FDF76EFF99
:10246000286B07B030BD000049444C450000000017
:1024700035140008780000202E2E5C4672656552E7
:10248000544F535C7372635C7461736B732E63009F
:102490004572726F723A25732C25640D0A00000094
:1024A00070B50446154DE868A96A2044884205D9EC
:1024B00040F61A2212A118A0FDF740FFE868A96AA9
:1024C0002044884216D1686B28B940F621220CA11D
:1024D00011A0FDF733FF2CB940F6222208A10EA06F
:1024E000FDF72CFFFFF776FCA869401CA861FFF7F9
:1024F000ABFC641EE8682044E86070BD78000020F2
:102500002E2E5C4672656552544F535C7372635C49
:102510007461736B732E63004572726F723A257328
:102520002C25640D0A0000000248416B491C4163E0
:10253000704700007800002070B5144D686B0028CB
:1025400002D00120E86170BD0020E8612869B0FA7E
:1025500080F0C0F11F000E4E00EB800456F82400FE
:1025600028B940F6F6320BA110A0FDF7E7FE06EB06
:10257000840041684968416000F10802914201D13C
:10258000496841604068C068286070BD78000020DC
:10259000B49700202E2E5C4672656552544F535CF2
:1025A0007372635C7461736B732E63004572726F38
:1025B000723A25732C25640D0A00000070B5184C82
:1025C00000252078002802D0012826D111E015A08E
:1025D000FDF7B4FEFFF7F4FA207140B1FEF7E2F91F
:1025E000FEF758FAFFF724FB0120207015E0257054
:1025F00013E013A0FDF7A2FEFFF7C2FAE07028B1C6
:1026000021790143A1700220207000E02570FEF7BF
:10261000EFF9FEF717FAFFF7F5FA657070BD0000E5
:1026200000000020D5E2C0EFCAC7C8EDBCFEB6A8C6
:10263000CAB1C6F7B7FECEF1BAAFCAFD310D0A0076
:10264000D5E2C0EFCAC7C8EDBCFEB6A8CAB1C6F78E
:10265000B7FECEF1BAAFCAFD320D0A007CB5384CD8
:1026600021683848814205D14FF4A37236A140A0B9
:10267000FDF764FE20683349491E884205D140F2C7
:10268000471231A13AA0FDF759FE3D4D287801903F
:10269000FF202870287800909DF800009DF8001019
:1026A00000F0F000884205D04FF4B07226A130A0AF
:1026B000FDF744FE9DF80000324C00F05000207001
:1026C0000720606106E06069401E60619DF80000BF
:1026D000400000909DF800000006F4D460690328D3
:1026E00005D04FF4BA7218A121A0FDF727FE60694A
:1026F000032805D040F27D1213A11DA0FDF71EFE98
:10270000207D000200F4E0606061019828700C48B0
:102710002030016841F470010160016841F07041AE
:102720000160FFF711FC00206060FDF7A9FD16486D
:10273000016841F040410160FDF78EFD00207CBD45
:1027400000ED00E071C20F412E2E5C4672656552AD
:10275000544F535C706F72745C525644535C4152D8
:102760004D5F434D34465C706F72742E6300000001
:102770004572726F723A25732C25640D0A000000B1
:1027800000E400E06000002034EF00E010B55020CD
:1027900080F31188BFF34F8FBFF36F8F00F0D0FC31
:1027A00018B104494FF080500860002080F3118870
:1027B00010BD000004ED00E0F8B505460E461746D2
:1027C0000024002D1AD0601EB0FBF5F0B04215D3E6
:1027D00005FB06F010F1490F10D84830FFF740F91B
:1027E00004468CB122464832002084F846003B461D
:1027F000314628460094FEF761FE05E04FF4F27280
:1028000002A108A0FDF79AFD2046F8BD2E2E5C46D9
:1028100072656552544F535C7372635C7175657574
:10282000652E63004572726F723A25732C25640D14
:102830000A0000002DE9F843DDF8209080460E469E
:1028400017461D460024002D05D140F2771211A134
:1028500016A0FDF773FDB8F1000F04D01DB107B14C
:102860000EB14FB946B14FF4D0720AA10FA0FDF7D7
:1028700065FD2046BDE8F883482000902C460120E5
:1028800084F846004B463A46314640460094FEF7EF
:1028900015FEEEE72E2E5C4672656552544F535C72
:1028A0007372635C71756575652E63004572726F36
:1028B000723A25732C25640D0A0000002DE9F041C1
:1028C00004460F460125002C05D14FF4977227A12D
:1028D0002CA0FDF733FD20003CD0E06BC8B34FF0D7
:1028E000FF36B6FBF0F1206C814233D3FFF772FA6A
:1028F000D4E90F20216802FB0011A1600021A1632F
:1029000021686160E06B2268216C401E00FB0121A0
:10291000E16084F8446084F8456004F1100047B138
:10292000FFF726FA04F12400FFF722FAFFF78CFAEA
:1029300011E021690029F9D000F0ACFC0028F5D0A5
:1029400014494FF080500860BFF34F8FBFF36F8F73
:10295000ECE7FFE700252DB940F2631203A109A0BF
:10296000FDF7ECFC2846BDE8F08100002E2E5C4609
:1029700072656552544F535C7372635C7175657513
:10298000652E63004572726F723A25732C25640DB3
:102990000A00000004ED00E02DE9FF4782B0044684
:1029A0008A461E460025002C05D14FF453724EA1D5
:1029B00053A0FDF7C3FCBAF1000F07D1206C28B17A
:1029C00040F24D3248A14EA0FDF7B8FC022E08D1CE
:1029D000E06B012805D040F24E3243A148A0FDF73C
:1029E000ADFC00F099FB38B9049828B140F251329F
:1029F0003DA143A0FDF7A2FC4FF000094FF0805726
:102A0000DFF80C81FFF7E6F9A06BE16B884205D394
:102A1000022E03D0049808B325B327E0324651466E
:102A20002046FEF753FC616A59B104F1240000F01E
:102A300031FC68B1C8F80070BFF34F8FBFF36F8FE0
:102A400006E028B1C8F80070BFF34F8FBFF36F8F57
:102A5000FFF7FAF9012006B0BDE8F087FFF7F4F9B7
:102A60000020F8E76846FFF747FC0125FFF7ECF97F
:102A7000FFF75AFDFFF7AEF994F94400401C01D16D
:102A800084F8449094F94500401C01D184F84590A5
:102A9000FFF7DAF904A9684600F06AFA30B1204677
:102AA000FEF7A8FF00F07AFC0020D4E72046FEF7EE
:102AB0002CFE90B104F110000499FFF72BFC204686
:102AC000FEF798FF00F06AFC00289BD1C8F8007060
:102AD000BFF34F8FBFF36F8F94E72046FEF78AFF57
:102AE00000F05CFC8EE700002E2E5C46726565529D
:102AF000544F535C7372635C71756575652E63002A
:102B00004572726F723A25732C25640D0A0000001D
:102B100004ED00E02DE9F0470446894690461F4643
:102B2000002C05D14FF484622CA132A0FDF706FCE5
:102B3000B9F1000F07D1206C28B140F2214227A142
:102B40002CA0FDF7FBFB022F08D1E06B012805D07C
:102B500040F2224221A127A0FDF7F0FBFFF784FA03
:102B60005020EFF3118680F31188BFF34F8FBFF32E
:102B70006F8FA06BE16B884206D3022F04D0002038
:102B800086F31188BDE8F08794F94550A06B3A466A
:102B900049462046FEF79AFB681C06D0FFF7CCF8A2
:102BA000854219D27F2D0ED013E0606AA0B104F1E6
:102BB000240000F06FFB78B1B8F1000F0CD00120B9
:102BC000C8F8000008E040F2AB4204A109A0FDF7FC
:102BD000B5FB6D1C84F845500120D1E72E2E5C46D4
:102BE00072656552544F535C7372635C71756575A1
:102BF000652E63004572726F723A25732C25640D41
:102C00000A0000002DE9F04104460F46002C05D1D2
:102C100040F2C94226A12CA0FDF790FB206C28B100
:102C200040F2CD4222A128A0FDF788FB206838B9E8
:102C3000A06828B140F2D2421DA123A0FDF77EFB7F
:102C4000FFF712FA5020EFF3118680F31188BFF3DB
:102C50004F8FBFF36F8FA06BE16B814222D994F944
:102C60004550401CA063681C06D0FFF765F88542FC
:102C700016D27F2D0BD010E0606A88B104F12400D9
:102C800000F008FB60B15FB10120386008E040F25D
:102C9000515207A10CA0FDF751FB6D1C84F8455063
:102CA000012000E0002086F31188BDE8F0810000DB
:102CB0002E2E5C4672656552544F535C7372635C92
:102CC00071756575652E63004572726F723A257372
:102CD0002C25640D0A0000002DE9F74783B0044657
:102CE0008A460026002C05D140F26B5244A14AA02E
:102CF000FDF724FBBAF1000F07D1206C28B140F298
:102D00006F523FA144A0FDF719FB00F005FA38B956
:102D1000059828B140F2745239A13FA0FDF70EFB8F
:102D200000274FF08058DFF80091FFF753F8A56BAC
:102D3000C5B151462046FEF7B5FA6D1EA563206960
:102D400050B104F1100000F0A5FA28B1C9F80080D4
:102D5000BFF34F8FBFF36F8FFFF776F8012006B0F8
:102D6000BDE8F087059808B126B107E0FFF76CF8D9
:102D70000020F4E701A8FFF7BFFA0126FFF764F887
:102D8000FFF7D2FBFFF726F894F94400401C01D16D
:102D900084F8447094F94500401C01D184F84570D2
:102DA000FFF752F805A901A800F0E2F858B1204653
:102DB000FEF720FE00F0F2FA2046FEF799FC00280C
:102DC000B3D00020CBE72046FEF792FC90B104F18F
:102DD00024000599FFF79EFA2046FEF70BFE00F04F
:102DE000DDFA0028A1D1C9F80080BFF34F8FBFF3EF
:102DF0006F8F9AE72046FEF7FDFD00F0CFFA94E7CB
:102E00002E2E5C4672656552544F535C7372635C40
:102E100071756575652E63004572726F723A257320
:102E20002C25640D0A00000004ED00E02DE9F341BB
:102E300082B004460025002C05D140F2FD5241A18C
:102E400046A0FDF77BFA206C28B140F201623DA15B
:102E500042A0FDF773FA00F05FF938B9039828B182
:102E600040F2066237A13DA0FDF768FA00264FF058
:102E70008057DFF8F880FEF7ADFFA06BA0B1401ED1
:102E8000A063206950B104F1100000F003FA28B1EA
:102E9000C8F80070BFF34F8FBFF36F8FFEF7D4FFFA
:102EA000012004B0BDE8F081039808B125B107E026
:102EB000FEF7CAFF0020F4E76846FFF71DFA012578
:102EC000FEF7C2FFFFF730FBFEF784FF94F94400E2
:102ED000401C01D184F8446094F94500401C01D1A4
:102EE00084F84560FEF7B0FF03A9684600F040F89B
:102EF00058B12046FEF77EFD00F050FA2046FEF75E
:102F0000F7FB0028B7D00020CBE72046FEF7F0FB08
:102F100090B104F124000399FFF7FCF92046FEF775
:102F200069FD00F03BFA0028A5D1C8F80070BFF396
:102F30004F8FBFF36F8F9EE72046FEF75BFD00F0DB
:102F40002DFA98E72E2E5C4672656552544F535CFD
:102F50007372635C71756575652E63004572726F7F
:102F6000723A25732C25640D0A00000004ED00E080
:102F70002DE9F04105460C46002D05D140F6EF4203
:102F800018A11EA0FDF7DAF92CB94FF44F6215A174
:102F90001AA0FDF7D3F9FEF71DFF1C4EF0686B6811
:102FA000C11A2268571C0AD02F68D6F820C0002604
:102FB000674506D0834204D8012526600CE0002531
:102FC0000AE08A4206D9501A20602846FFF794F991
:102FD000002501E026600125FEF736FF2846BDE802
:102FE000F08100002E2E5C4672656552544F535C92
:102FF0007372635C7461736B732E63004572726FDE
:10300000723A25732C25640D0A0000007800002018
:103010002DE9FF5F8146DDE90E788A4616469B461C
:10302000B000FEF71DFD054628000ED04C20FEF72F
:1030300017FD04462CB14C212046FDF76AFA2563A2
:1030400004E02846FEF732FF00E000249CB1002097
:1030500084F84900CDE90240CDE900785B4632466C
:1030600051464846FEF736FA2046FEF77DF8012025
:1030700004B0BDE8F09F4FF0FF30F9E72DE9F04FC5
:1030800085B08046DDE90E75109C894692469B46C8
:10309000002D05D140F23F2215A11BA0FDF74EF9EE
:1030A0002CB94FF4107212A117A0FDF747F94C206C
:1030B00003900026BCB1B5B14C212046FDF729FA9A
:1030C0002563022084F8490004A8CDE90070CDE909
:1030D00002465B46524649464046FEF7FBF920460B
:1030E000FEF742F800E00496049805B0BDE8F08FC2
:1030F0002E2E5C4672656552544F535C7372635C4E
:103100007461736B732E63004572726F723A25732C
:103110002C25640D0A00000005484169002903D0F0
:10312000406B18B1002070470120704702207047A3
:10313000780000200148C068704700007800002037
:103140002DE9F0410025474E706B002805D0B0698D
:10315000401CB0612846BDE8F081F468641CF4604E
:103160008CB9B06B006828B140F6B7223EA144A0EC
:10317000FDF7E4F8B06BF16BB163F063306A401CAB
:103180003062FEF7C1FBB06A414F84420FD34FF06B
:10319000000CB06B006838B1B06BC068C16848689B
:1031A000844212D2B06202E04FF0FF30B062306869
:1031B000C06A00EB800057F82000012800D90125E3
:1031C000F0690028C6D00125C4E74A69D1E9023078
:1031D0009860D1E90203586050680B1D984201D1F4
:1031E000C8685060C1F814C01068401E10608A6A38
:1031F0009AB1D1E90780C8F80800D1E90708C8F8F2
:103200000400506801F11808404501D1086A506077
:10321000C1F828C01068401E1060C86A0122D6F8A4
:103220001080824042EA0802326100EB800007EB26
:10323000800042688A609068C860906843609360CC
:10324000C86A00EB800007EB80024A6157F8202033
:10325000521C47F82020C86A3168C96A884298D948
:10326000012596E7780000202E2E5C467265655297
:10327000544F535C7372635C7461736B732E6300A1
:103280004572726F723A25732C25640D0A00000096
:10329000B497002070B5C068C468002C05D140F612
:1032A000744231A136A0FDF749F8A06AD4E90712AB
:1032B0008A60D4E907125160426804F118018A4219
:1032C00001D1226A42600022A26203685B1E036091
:1032D0002F4D686B012698B12E4A5068E0618368D3
:1032E0002362836859608160A2621068401C10608C
:1032F000E06A2968C96A884233D90120EE6170BD4D
:103300006069D4E902319960D4E9021359604368D5
:10331000211D8B4201D1E368436062610268521E45
:103320000260E06A2B6906FA00F21A432A611A4A1F
:1033300000EB800002EB80004068A0608368E360DF
:10334000836859608160E06A00EB800002EB8001D5
:10335000616152F82010491C42F82010FEF7D4FA9F
:10336000C6E7002070BD00002E2E5C4672656552D7
:10337000544F535C7372635C7461736B732E6300A0
:103380004572726F723A25732C25640D0A00000095
:10339000780000205C9A0020B49700202DE9F041CD
:1033A0000024A046434D686B002805D140F68502F5
:1033B00041A147A0FCF7C2FFFEF70CFD686B401E61
:1033C0006863686B002870D1A86800286DD000275A
:1033D000434A01264DE0D068C468A16AD4E90730A9
:1033E0009860D4E9070358604B6804F118008342E1
:1033F00001D1206A4860A7620868401E08606169C0
:10340000D4E902309860D4E9020358604B68201D6B
:10341000834201D1E3684B6067610B685B1E0B6000
:10342000E16AD5F810C006FA01F343EA0C032B61F8
:103430002C4B01EB810103EB81014968A160D1F8BC
:1034400008C0C4F80CC0D1F808C0CCF804008860EB
:10345000E06A00EB800003EB8001616153F820100B
:10346000491C43F82010E06A2968C96A884200D3E1
:10347000EE6110680028AED10CB1FEF745FAAC69D8
:103480003CB1FFF75DFE00B1EE61641E002CF8D187
:10349000AF61E86948B14FF0010813494FF080501F
:1034A0000860BFF34F8FBFF36F8FFEF7CDFC404630
:1034B000BDE8F081780000202E2E5C4672656552D2
:1034C000544F535C7372635C7461736B732E63004F
:1034D0004572726F723A25732C25640D0A00000044
:1034E0005C9A0020B497002004ED00E02DE9FC4731
:1034F00006460A9D0F46904699462820FEF7B0FAE8
:10350000044654B1002084F82400CDE900544B4611
:10351000424639463046FEF73BF82046BDE8FC8778
:1035200030B587B00024FDF773FE124D2868B0B1A6
:1035300000200690059004AA05A906A8FEF70CFC39
:10354000DDE905101F22CDE90021029000230AA128
:103550000B48049AFFF792FD686000B101242CB972
:1035600040F2191207A10EA0FCF7E8FE07B02046B2
:1035700030BD0000B8000020546D72205376630007
:10358000E11900082E2E5C4672656552544F535C5B
:103590007372635C74696D6572732E630000000062
:1035A0004572726F723A25732C25640D0A00000073
:1035B0002DE9FE4FDDF830A005460E4690469946AF
:1035C0000027002D05D140F28B1215A11BA0FCF79E
:1035D000B5FE1E4C2068F8B10096CDF80480029527
:1035E000062E13DAFFF798FD022807D000231A46AB
:1035F00069462068FFF7D0F907460DE000235246E0
:1036000069462068FFF7C8F9074605E000234A46E7
:103610006946FFF77FFA07463846BDE8FE8F00008F
:103620002E2E5C4672656552544F535C7372635C18
:1036300074696D6572732E63000000004572726FCD
:10364000723A25732C25640D0A000000B800002092
:103650004FF04070E1EE100A704700007C36000821
:1036600000000020CC000000C4010008483700081A
:10367000CC00002014A10000E001000800000000C0
:10368000000000000000000000000000000000003A
:103690000000000000000000007A030A00000000A3
:1036A00000000000010203040607080900000000F2
:1036B00001020304010203040607080900000000D8
:1036C00000000000000000000000000000000000FA
:1036D00000000000000000000000000000000000EA
:1036E000AAAAAAAA00000000000000000000000032
:1036F00000000000000000000000000000000000CA
:1037000000000000000000000000000000000000B9
:1037100000000000000000000000000000000000A9
:10372000000000001F00000000000000000000007A
:103730000000000000000000000000000000000089
:08374000000000000000000081
:040000050800018965
:00000001FF
