:020000040800F2
:10000000E8A10020F9020008BB0B0008790A0008EB
:10001000B90B0008D5090008F90F0008000000001E
:10002000000000000000000000000000390200088D
:10003000D70900080000000095020008C90D00085B
:100040001303000813030008130300081303000838
:100050001303000813030008130300081303000828
:100060001303000813030008130300081303000818
:100070001303000813030008130300081303000808
:1000800013030008130300081303000813030008F8
:1000900013030008130300081303000813030008E8
:1000A00013030008130300081303000813030008D8
:1000B00013030008130300081303000813030008C8
:1000C00013030008130300081303000813030008B8
:1000D00013030008290E0008130300081303000887
:1000E0001303000813030008130300081303000898
:1000F0001303000813030008130300081303000888
:100100001303000813030008130300081303000877
:100110001303000813030008130300081303000867
:100120001303000813030008130300081303000857
:100130001303000813030008130300081303000847
:100140001303000813030008130300081303000837
:100150001303000813030008130300081303000827
:100160001303000813030008130300081303000817
:100170001303000813030008130300081303000807
:10018000130300081303000800F002F800F044F81D
:100190000AA090E8000C82448344AAF10107DA45E2
:1001A00001D100F039F8AFF2090EBAE80F0013F0F0
:1001B000010F18BFFB1A43F0010318473436000043
:1001C00054360000103A24BF78C878C1FAD85207D4
:1001D00024BF30C830C144BF04680C6070470000C1
:1001E0000023002400250026103A28BF78C1FBD840
:1001F000520728BF30C148BF0B607047642900F028
:100200000781732900F01B82002070471FB503F09F
:10021000E9FA1FBD10B510BD00F076FA1146FFF7E0
:10022000F5FF00F067FF00F094FA03B4FFF7F2FF68
:1002300003BC00F0E2FE00002C4B19680868B0E82F
:10024000F04F80F30988BFF36F8F4FF0000080F309
:10025000118870470000000008480068006880F3BB
:1002600008884FF0000080F3148862B661B6BFF3CF
:100270004F8FBFF36F8F00DF00BF00BF08ED00E0BE
:10028000DFF80C00016841F470010160704700BFA5
:1002900088ED00E0EFF30980BFF36F8F134B1A680E
:1002A0001EF0100F08BF20ED108A20E9F04F1060FB
:1002B00009B44FF0500080F31188BFF34F8FBFF3A4
:1002C0006F8F02F00BFA4FF0000080F3118809BC29
:1002D00019680868B0E8F04F1EF0100F08BFB0ECC6
:1002E000108A80F30988BFF36F8F70478000002069
:1002F000EFF3058070470000094880470948004730
:10030000FEE7FEE7FEE7FEE7FEE7FEE7FEE7FEE7C5
:10031000FEE7FEE704480549054A064B7047000022
:10032000CD0D000889010008E89B0020E8A100200D
:10033000E89D0020E89D0020704700000FB40449AC
:1003400010B503AA029800F07FF910BC5DF814FB09
:10035000480000202DE9F0410E46044600202062AE
:100360002046E168884730B3252805D0D4E901212B
:100370009047206A401CF2E7E16820460027884742
:10038000050018D0A5F14100192802D820354FF4F6
:1003900000673246294620462760FFF72FFF40B10D
:1003A000012804D0F61D26F007060836D8E7361DCA
:1003B000D6E72846DAE7206ABDE8F08170B50C463A
:1003C0000546012A05D02878800600D5EA69002371
:1003D00002E0012305E05B1C934202D2E05C0028AE
:1003E000F9D1A869E618C01AA861286A18442862D9
:1003F0002846AFF3008004E0D5E9012114F8010B91
:100400009047B442F8D32846AFF3008070BD000097
:100410002DE9F0410646002410687529314616A5DD
:1004200010D0AFF30080002802DA404213A507E0A5
:1004300031688A0701D512A502E0490704D511A544
:10044000012401E0AFF3008000210A2206F1240715
:1004500009E0B0FBF2FCB0FBF2F302FB1C00303011
:1004600078541846491C0028F3D123462A463046C2
:10047000BDE8F04100F078B8000000002D00000059
:100480002B00000020000000032A40F2308010F012
:10049000030C00F0158011F8013BBCF1020F62441F
:1004A00098BF11F801CB00F8013B38BF11F8013BB0
:1004B000A2F1040298BF00F801CB38BF00F8013B5D
:1004C00011F0030300F0D280083AC0F0088051F820
:1004D000043B083A51F804CBA0E80810F5E7121DD8
:1004E0005CBF51F8043B40F8043BAFF30080D207F7
:1004F00024BF11F8013B11F801CB48BF11F8012BC3
:1005000024BF00F8013B00F801CB48BF00F8012BE5
:1005100070474FF0000200B51346944696462039C6
:1005200022BFA0E80C50A0E80C50B1F12001BFF4AC
:10053000F7AF090728BFA0E80C5048BF0CC05DF812
:1005400004EB890028BF40F8042B08BF704748BF60
:1005500020F8022B11F0804F18BF00F8012B7047D4
:1005600070477047704770472DE9F0470D46994630
:100570009246044600F124080168880604D5E06923
:1005800021F01001216000E00120A84201DD471B9D
:1005900000E00027A1697A1902EB0900081AA0619E
:1005A0002078C00602D42046AFF30080002608E081
:1005B000D4E901211AF806009047206A401C761CF5
:1005C00020624E45F4DB2078C0060AD52046AFF302
:1005D000008006E0D4E9012130209047206A401CC9
:1005E0002062381EA7F10107F4DC07E0D4E90121FD
:1005F00018F805009047206A401C2062281EA5F1CB
:100600000105F3DC2046AFF300802078000602D518
:100610000220BDE8F0870120FBE710B5436913B164
:10062000AFF3008001E0FFF7C9FE012010BD127892
:1006300000F124010A7000224A700122EDE71168DE
:100640004FF0FF32E9E70000074B70B50D467B44E1
:1006500000F043F80446284600F052F810B14FF07D
:10066000FF3070BD204670BD8F0A000010B5203AE3
:10067000C0F00B80B1E81850203AA0E81850B1E85B
:100680001850A0E81850BFF4F5AF5FEA027C24BF11
:10069000B1E81850A0E8185044BF18C918C0BDE808
:1006A00010405FEA827C24BF51F8043B40F8043BD1
:1006B00008BF7047D20728BF31F8023B48BF11F886
:1006C000012B28BF20F8023B48BF00F8012B7047E0
:1006D00001694A1C02610878704700B58FB0CDE906
:1006E00001310021059105497944CDE903101146F6
:1006F0006846FFF72FFE0FB000BD0000E5FFFFFFCB
:10070000007B00F080007047754600F02BF8AE4685
:1007100005006946534620F00700854618B020B50D
:10072000FFF7F8FDBDE820404FF000064FF000074E
:100730004FF000084FF0000B21F00701AC46ACE889
:10074000C009ACE8C009ACE8C009ACE8C0098D46F6
:10075000704710B50446AFF300802046BDE8104056
:10076000FFF763BD00487047889B00207CB50322DB
:100770000021012002F0EAF8374C606001F022FB12
:1007800004F10C000921CDE900104FF4007500239D
:100790002A4632A1344802F005FD012847D033A093
:1007A000FFF7CCFD2C4808211030CDE900100023C4
:1007B0002A4635A1374802F0F5FC01283BD036A087
:1007C000FFF7BCFD244806211430CDE900100023BA
:1007D0002A4638A13A4802F0E5FC01282FD039A07A
:1007E000FFF7ACFD1C4807211830CDE900100023AD
:1007F0002A463BA13D4802F0D5FC012823D03CA06D
:10080000FFF79CFD4148002300901A46142140A0A8
:1008100002F036FFE061002819D040A0FFF78EFDFE
:10082000A06801F0F5FCBDE87C4001F005BB44A0E8
:10083000FFF784FDB6E749A0FFF780FDC2E74EA0B1
:10084000FFF77CFDCEE753A0FFF778FDDAE758A06D
:10085000FFF774FDE4E70000000000204C45443140
:100860005F5461736B000000410B00084C4544313C
:100870005F5461736B20C8CECEF1B4B4BDA8CAA7D3
:10088000B0DC210D0A0000004C4544325F54617316
:100890006B0000005D0B00084C4544325F546173EF
:1008A0006B20C8CECEF1B4B4BDA8CAA7B0DC210D70
:1008B0000A0000004B65795F5461736B0000000013
:1008C000AD0A000844656C6574655F5461736B2004
:1008D000C8CECEF1B4B4BDA8CAA7B0DC210D0A00C1
:1008E00055617274315F5461736B0000CD0F000865
:1008F00055617274315F5461736B20C8CECEF1B410
:10090000B4BDA8CAA7B0DC210D0A00006127000809
:1009100054696D65725F4B65790000007854696DAC
:1009200065725F4B657920B6A8CAB1C6F7C8CECE4E
:10093000F1B4B4BDA8B3C9B9A6210D0A00000000E6
:100940004C4544315F5461736B20C8CECEF1B4B4D2
:10095000BDA8B3C9B9A6210D0A0000004C45443218
:100960005F5461736B20C8CECEF1B4B4BDA8B3C9D7
:10097000B9A6210D0A00000044656C6574655F54DA
:1009800061736B20C8CECEF1B4B4BDA8B3C9B9A60B
:10099000210D0A0055617274315F5461736B20C878
:1009A000CECEF1B4B4BDA8B3C9B9A6210D0A0000DA
:1009B0007854696D65725F4B657920B6A8CAB1C677
:1009C000F7C8CECEF1B4B4BDA8CAA7B0DC210D0AD9
:1009D00000000000FEE770472DE9F04100220127EA
:1009E0004FF0030C07FA02F50B682B40AB422CD1F9
:1009F000066853000CFA03F4A64306600E79D0F89B
:100A000000809E4046EA080606600E79012E01D05D
:100A1000022E12D18668A64386604E79D0F80880EF
:100A20009E4046EA080686604668AE4346604568D2
:100A30008E799640B6B235434560C568A543C5601A
:100A4000CC799C40C3681C43C460521C102AC9D393
:100A5000BDE8F08110B54B07DB0E9A40C90800EBEA
:100A60008100016A0F249C40A1430162016A114385
:100A7000016210BD81617047FEE700001CB50121D5
:100A8000022000F0D9F84FF48070009000208DF81B
:100A9000040003208DF8050001208DF80700694649
:100AA0000148FFF799FF1CBD0004024008B500266D
:100AB0000F4C01250F4F10E0206A01280DD002F0E5
:100AC00003FC0246009600230221E06902F03AFE90
:100AD000012807D008A0FFF731FCD7F82002002832
:100AE000FBD1E9E70DA0FFF729FC2562F5E700003F
:100AF00000000020008040427854696D65725F4BB1
:100B0000657920B6A8CAB1C6F7C8CECEF1BFAAC6CD
:100B1000F4CAA7B0DC210D0A000000007854696D0A
:100B200065725F4B657920B6A8CAB1C6F7C8CECE4C
:100B3000F1BFAAC6F4B3C9B9A6210D0A000000008E
:100B4000054C4FF4FA75D4F8A412C943C4F8A412A2
:100B5000284601F023FBF6E700804242054C4FF4A3
:100B6000FA75D4F8A812C943C4F8A812284601F0AF
:100B700015FBF6E7008042427CB50121202000F001
:100B80005BF84FF4C064009401208DF8040000224B
:100B90008DF8062003228DF805208DF80700054DFD
:100BA00069462846FFF718FF21462846FFF762FFEF
:100BB0007CBD000000140240FEE7704730B50F23F3
:100BC000C27801250178002A1FD0154A126802F464
:100BD000E062C2F5E062C2F30722C2F10404D3402E
:100BE0004278A24084781C401443220101F1E021A4
:100BF00081F80024007800F01F018D40400980003A
:100C000000F1E020C0F8005130BD01F01F00854028
:100C10004809800000F1E020C0F8805130BD00009C
:100C20000CED00E0024908430249086070470000EB
:100C30000000FA050CED00E0054A002903D0116818
:100C400001431160704711688143116070470000D3
:100C500030380240054A002903D011680143116071
:100C600070471168814311607047000044380240AA
:100C700070B5244B196801F00C01234C00291ED0DB
:100C8000661004291DD008291DD00460196801F0E0
:100C9000F00109091D4A545C0168E14041601C688B
:100CA00004F4E054A40A145D21FA04F484601B687F
:100CB00003F460435B0BD25CD140C16070BD046043
:100CC000E4E70660E2E70F4A121F1168C1F380559E
:100CD000116801F03F0135B1B6FBF1F11468C4F3BE
:100CE0008814614305E0B4FBF1F11468C4F388147F
:100CF00061431268C2F30142521C5200B1FBF2F18F
:100D00000160C3E7083802400024F40038000020E6
:100D10000CB50022019200922749086840F4803007
:100D200008604FF4A043086800F400300090019878
:100D3000401C0190009810B901989842F3D10868BE
:100D4000800302D50120009000E000920098012865
:100D500031D119484030026842F080520260174891
:100D6000026842F4404202601348083002680260A0
:100D7000026842F400420260026842F4A05202603B
:100D8000021F0F4B13600A6842F080720A600A6803
:100D90009201FCD50B4A40F205711160016821F007
:100DA00003010160016841F0020101600168C1F3C3
:100DB00081010229FAD10CBD0038024000700040C8
:100DC00008544007003C024001F0AABD10B512488B
:100DD000016841F4700101601048016841F00101AF
:100DE00001600E4A00210832116002680C4B1A4063
:100DF0000260031D0B4A1A60026822F4802202601E
:100E000006480C300160FFF783FF03494FF0006094
:100E10008039086010BD000088ED00E00038024015
:100E2000FFFFF6FE1030002470B50D4D40F2255145
:100E3000284600F029F8002810D00A4C60680028E5
:100E40000CD0284600F0BAF8C1B2284600F0BAF833
:100E50006068BDE87040002101F09EBF70BD0000D9
:100E600000100140000000208A05C943018070473E
:100E7000002904D0818941F4005181817047818922
:100E800021F400518181704770B5002440F66A1248
:100E9000C1F3421301F01F05012606FA05F2012BEA
:100EA0000CD0022B0DD0838A1340090A8E40008893
:100EB00030400BB100B10124204670BD838913403E
:100EC000F3E7038A1340F0E710B540F66A13C1F365
:100ED000421301F01F040121A140012B07D0022B76
:100EE00007D014303AB102680A43026010BD0C30DA
:100EF000F8E71030F6E702688A43026010BD000090
:100F00007FB504460D46208A20F44051E888084306
:100F10002082A08941F20C618843A9882A89114363
:100F20006A8902431143A181A08A20F44071A889F3
:100F30000843A0826846FFF79BFE1E48844202D009
:100F40001D48844201D1039800E00298A189090458
:100F500008D500EBC00101EB001029684900B0FB87
:100F6000F1F007E000EBC00101EB001029688900F7
:100F7000B0FBF1F06422B0FBF2F109010B096FF054
:100F800018056B4300EB8300A3891D044FF0320367
:100F900007D503EBC000B0FBF2F000F007000843F8
:100FA00006E003EB0010B0FBF2F000F00F00084386
:100FB00020817FBD00100140001401408088C0F3F3
:100FC00008007047C1F3080181807047084C4FF05A
:100FD000FF36084D04E0D4F8A402C043C4F8A402CC
:100FE0003146686801F0ECFF0128F9D1F3E7000011
:100FF0000080424200000020FEE7704701200C49BB
:101000000968002901D0002070470A49CA690AB15D
:10101000002070478A690AB100207047044A2832CC
:1010200012688968491E8A42F7D102207047000081
:10103000649A0020800000202DE9F0410446002C35
:1010400005D140F24A521AA11FA0FFF777F9224FAB
:101050003868844202D10020BDE8F08100F0B2FE81
:101060006569BE6BFF6B00F0E7FEB54201D0BD4283
:1010700001D10220F0E71948854210D1A06A08B1D9
:101080000220E9E703200021621892F84820012A93
:1010900003D0491C0129F7DBDEE70220DCE70F481B
:1010A0001438854202D00DB10120D5E70420D3E7E2
:1010B0002E2E5C4672656552544F535C7372635CAE
:1010C0007461736B732E63004572726F723A25738D
:1010D0002C25640D0A000000800000208C9A00205E
:1010E00003490A885206FCD5C2B28A8070470000C4
:1010F000001001401CB54FF44070FFF793FD4FF412
:10110000E13000F0A3FDFFF737FDFFF7B7FC09481A
:101110000021CDE900100B464FF4007206A10A48E9
:1011200002F040F8012802D04FF0FF301CBD01F062
:10113000BBF9FEE7080000204170705461736B43F7
:1011400072656174650000006D0700082DE9F041CB
:1011500004460F461E4DEE682868001D00F0D0FDC5
:1011600038B9286890F82C100120884029698143FB
:101170002961601C15D1A7B1164948682A6890609A
:1011800082682B68DA602A688368121D5A602A68B0
:10119000121D8260286841610868401C0860BDE833
:1011A000F081344428684460B44206D22968E86B70
:1011B000091DBDE8F04100F0E1BD2968A86B091DDB
:1011C00000F0DCFDA86A8442E9D2AC62E7E70000E7
:1011D000800000208C9A002070B5044600F0F2FDDB
:1011E000244DA868401CA860286810B1686938B10F
:1011F0000CE02C60A868012808D100F03BFA05E05B
:101200002868E16AC06A884200D82C60686A401C7D
:101210006862E06A01212A69814011432961164A06
:1012200000EB800002EB80004068A0608168E16014
:101230008368211D59608160E06A00EB800002EB49
:101240008001616152F82010491C42F8201000F022
:10125000F3FD686900280CD02868E16AC06A8842FA
:1012600007D206494FF080500860BFF34F8FBFF39D
:101270006F8F70BD80000020BC97002004ED00E05F
:1012800038B500F09FFD104C2068C8B90F4800F039
:1012900067FD0E48143000F063FD0C48E060143028
:1012A00020610A4B0020C03B009003F148020C2152
:1012B0000A2001F089FB206010B105A100F010FFA9
:1012C000BDE8384000F0B8BDC0000020609B0020A1
:1012D000546D72510000000070B50C4D0C4E11E0C1
:1012E00000F070FDF068C468201D00F009FDA868DA
:1012F000401EA8606868401E686000F09DFD2046A2
:1013000000F04AF868680028EAD170BD800000202B
:10131000789A002030B40B46026C002A0CD0C168C9
:101320001144C1608468A14201D30168C160C168F1
:1013300030BC1846FFF7A8B830BC70472DE9F04123
:10134000044617460026A56B226C002A1FD07FB1E9
:10135000E068FFF799F8E168206C091AE1602268FB
:10136000914202D2A168081AE060022F0DD00EE06F
:101370006068FFF789F8216C606808446060A168C4
:10138000884204D32068606001E005B16D1E6D1CC9
:10139000A5633046BDE8F08110B5044694F84900D5
:1013A00000280BD0012811D0022814D0BDE810402D
:1013B00040F6957208A10EA0FEF7C0BF206B00F0AA
:1013C0006DFD2046BDE8104000F068BD2046BDE838
:1013D000104000F063BD10BD2E2E5C467265655254
:1013E000544F535C7372635C7461736B732E630050
:1013F0004572726F723A25732C25640D0A00000045
:1014000000200B490A69012A00D901200A68D26A22
:101410000AB100207047074A1268012A01D900204A
:10142000704708B100207047886AC968401A704741
:1014300080000020BC9700200749CA681168002975
:1014400004D00021016019B1002070470121F9E7A3
:10145000D068006870470000C00000204FF41041C1
:101460000E48420706D0C01D20F007000B49411A64
:10147000C1F510410A4B186000225A600144083936
:1014800021F00701143B19604A600A600A1A4260A1
:101490000160406898605860704700006C07002049
:1014A00060000020144D4FF08056144F144C40F64D
:1014B000B958FFF711FF2868012804D93E60BFF32F
:1014C0004F8FBFF36F8FFFF79BFF0228F1D301F01F
:1014D000FDF8A06AE168884204D2424609A10FA043
:1014E000FEF72CFFFFF78CFF022801D300F048FD28
:1014F00002F01EF8DDE70000BC97002004ED00E0DC
:10150000800000202E2E5C4672656552544F535C5D
:101510007372635C7461736B732E63004572726FD8
:10152000723A25732C25640D0A00000003460098CA
:10153000002905D00260C3630164012101F088BA6B
:101540000060F8E72DE9F047DDE908580A9C81467C
:101550000E469A46206B521E00EB820020F00707D1
:10156000780705D040F25D321BA121A0FEF7E6FE10
:1015700066B100202218315C82F83410315C11B160
:10158000401C1028F6D3002084F84300202D05D3FA
:1015900040F2923210A116A0FEF7D0FE202D00D30B
:1015A0001F25E562201D00F0E6FB04F1180000F0A5
:1015B000E2FB2461C5F12000A06164625246494605
:1015C000384600F031FB2060B8F1000F01D0C8F8B8
:1015D0000040BDE8F08700002E2E5C467265655223
:1015E000544F535C7372635C7461736B732E63004E
:1015F0004572726F723A25732C25640D0A00000043
:101600002DE9F047DDE9089406460D461746984651
:10161000002D05D140F26B120BA112A0FEF78EFE39
:10162000FFF72EFE2660A561C4F81C80C4F8209048
:10163000201D00F0A0FB002F04D014F8240F40F070
:1016400004002070BDE8F0872E2E5C46726565525E
:10165000544F535C7372635C74696D6572732E636F
:10166000000000004572726F723A25732C25640DDC
:101670000A00000070B50024114D04EB840005EB56
:10168000800000F06DFB641C202CF6D30D4800F0A8
:1016900067FB0C48143000F063FB0A48283000F068
:1016A0005FFB08483C3000F05BFB0648503000F020
:1016B00057FB0548034981631431C16370BD0000C5
:1016C000BC9700203C9A00208000002030B51349D0
:1016D00000E011460A688242FBD34B685C188442E2
:1016E00003D140681844486008460D6844682318D0
:1016F000AB420DD1094B143B1B689A4206D052688D
:10170000224442600A681268026002E0036000E05E
:101710000260814200D0086030BD000060000020FF
:1017200070B50024416000610C4D91420AD8D11A75
:101730008269914201D301240EE0011D286900F065
:101740001DFB09E09A4203D2994201D3012403E030
:10175000011DE86800F012FB204670BDC0000020AB
:1017600010B5044600F02EFBA06B20B1002400F061
:1017700063FB204610BD0124F9E710B5044600F0D4
:1017800021FBA06BE16B884201D1012400E0002421
:1017900000F052FB204610BD70B505460E460D48C0
:1017A000C068C068C468201D00F0AAFA94F824003C
:1017B000410705D532462946204600F0C9F803E026
:1017C00000F0FE0084F824002046216ABDE8704045
:1017D00008470000C00000207FB5364E62E0019847
:1017E00000285FDB039C606910B1201D00F088FABF
:1017F000684600F0D1F8054601980A2852D2DFE881
:1018000000F0510505282E450505282E94F82400E2
:1018100040F0010084F824000298A16903460144C5
:101820002A462046FFF77CFF78B394F8240041074E
:1018300007D50298A1692A460144204600F088F89D
:1018400003E000F0FE0084F82400216A2046884767
:1018500028E014F8240F00F0FE00207022E094F835
:10186000240040F0010084F824000298A06128B907
:1018700040F25E3210A117A0FEF760FDA0692B4672
:1018800041192A462046FFF74BFF0BE094F824004D
:10189000810703D4204600F001FB03E000F0FE00C6
:1018A00084F82400002201A9306801F0DFFA002842
:1018B00095D17FBDC00000202E2E5C46726565521A
:1018C000544F535C7372635C74696D6572732E63FD
:1018D000000000004572726F723A25732C25640D6A
:1018E0000A000000F8B506460D4600F0EFFE684617
:1018F00000F052F80446009810B101F019FEF8BD4E
:1019000045B9A64206D801F013FE21463046FFF73E
:1019100043FFF8BD0C481DB10169096891B100256C
:10192000311B2A46006800F015FC01F001FE00287A
:10193000EFD106494FF080500860BFF34F8FBFF3DF
:101940006F8FF8BD0125EBE7C000002004ED00E03B
:1019500070B505460C46164604E0A8690444296A99
:1019600028468847A8692346011932462846FFF7CA
:10197000D7FE0028F1D170BD0648816B09680029A7
:1019800004D0816BC9680968816270474FF0FF31EC
:10199000816270478000002070B5054601F094FC1C
:1019A0000446074EB068844204D200F00BF80120D0
:1019B000286001E000202860B460204670BD00006F
:1019C000C000002070B5094C4FF0FF3504E0C0683E
:1019D00000682946FFF7E0FEE0680268002AF6D1B9
:1019E000E0682169E160206170BD0000C000002056
:1019F00008484068401C04D0EC2207A110A0FEF764
:101A00009DFC502080F31188BFF34F8FBFF36F8F81
:101A1000FEE70000680000202E2E5C4672656552CD
:101A2000544F535C706F72745C525644535C415215
:101A30004D5F434D34465C706F72742E630000003E
:101A40004572726F723A25732C25640D0A000000EE
:101A500070B500250446002805D140F2FC6208A1BB
:101A60000DA0FEF76BFC10496069884205D1A06AA1
:101A70002839884201D000B90125284670BD0000F0
:101A80002E2E5C4672656552544F535C7372635CD4
:101A90007461736B732E63004572726F723A2573B3
:101AA0002C25640D0A0000008C9A002008B56846B9
:101AB000FFF7C2FC0099FFF715FFFFF78DFEF6E771
:101AC0002DE9F041044600F07DF994F9455004F108
:101AD000240609E0606A48B1304601F0A5FC08B16F
:101AE00000F00AFC6D1E6DB2002DF3DC4FF0FF36E6
:101AF00084F8456000F0A0F900F064F994F94450CE
:101B000004F1100709E0206948B1384601F08CFC67
:101B100008B100F0F1FB6D1E6DB2002DF3DC84F80E
:101B20004460BDE8F04100F087B900002DE9F041C4
:101B30000546002600F0CAFD2D4F386808B9FFF7AA
:101B40008DFC4DB105F00700C0F11000C1438D427E
:101B500001D8054400E00025002D3CDD7868854271
:101B600039D8234914310846046801E02146044667
:101B70006068A84202D220680028F7D13868844201
:101B800029D00E680836206808606068401B10285D
:101B900011D904EB05085FEA487004D0DC2215A1D6
:101BA0001DA0FEF7CBFB6068401BC8F80400656011
:101BB0004046FFF78BFD61687868401A7860BA6824
:101BC000904200D2B86041F0004060600020206088
:101BD000F868401CF86001F0ABFC700705D04FF4CA
:101BE0008E7204A10CA0FEF7A9FB3046BDE8F0817F
:101BF0004C0000202E2E5C4672656552544F535C9B
:101C0000706F72745C4D656D4D616E675C68656187
:101C1000705F342E630000004572726F723A257354
:101C20002C25640D0A00000024384FF080730362F5
:101C300021F00101C1610449816142606FF002013C
:101C400040F8201970470000F1190008F0B587B07E
:101C5000054601210846FEF7EFFF01211020FEF79F
:101C6000F9FF254F072209213846FEF7F3FE072228
:101C70000A213846FEF7EEFE4FF4C06005900220C0
:101C80008DF818008DF8190000248DF81A400126EF
:101C90008DF81B6005A93846FEF79EFE0195ADF84C
:101CA0000840ADF80A40ADF80C40ADF810400C20EB
:101CB000ADF80E00114D01A92846FFF721F90121C9
:101CC0002846FFF7D5F840212846FFF7CDF8012236
:101CD00040F225512846FFF7F7F825208DF800003F
:101CE00005208DF801008DF802408DF803606846EC
:101CF000FEF764FF07B0F0BD000002400010014095
:101D00000169D0E901329A60D0E901235A604A683A
:101D1000824201D182684A60002202610868401E46
:101D2000086008687047000001488068704700003C
:101D300080000020034B0360A3F5C0600860802092
:101D400010607047D4060020044B0360A3F24C409F
:101D500008604FF48070106070470000200700207A
:101D600000F1080141604FF0FF328260C160016103
:101D700000210160704700210161704730B50C6897
:101D8000621C02D000F1080202E0026904E01A4677
:101D900053681D68A542FAD953684B6099608A6000
:101DA000516008610168491C016030BD42684A60A9
:101DB00093688B6093685960916008610168491C61
:101DC00001607047502080F31188BFF34F8FBFF33D
:101DD0006F8F09494868401C486001280AD10748AC
:101DE000006810F0FF0F05D040F2B91204A10EA058
:101DF000FEF7A4BA704700006800002004ED00E080
:101E00002E2E5C4672656552544F535C706F72742F
:101E10005C525644535C41524D5F434D34465C70B6
:101E20006F72742E630000004572726F723A2573F0
:101E30002C25640D0A00000010B5094C60680028CC
:101E400005D14FF4E07207A110A0FEF777FA6068A1
:101E5000401E6060002801D180F3118810BD000091
:101E6000680000202E2E5C4672656552544F535C0C
:101E7000706F72745C525644535C41524D5F434DD7
:101E800034465C706F72742E630000004572726F8E
:101E9000723A25732C25640D0A00000070B50028E5
:101EA0002CD0083804466068002805DB40F22F1269
:101EB00013A11CA0FEF742FA206828B14FF49872D3
:101EC0000FA118A0FEF73AFA6068002816DA216818
:101ED000002913D120F00040606000F0F7FB154DA1
:101EE00060686968084468602046FFF7EFFB28696E
:101EF000401C2861BDE8704001F01ABB70BD0000B5
:101F00002E2E5C4672656552544F535C706F72742E
:101F10005C4D656D4D616E675C686561705F342E08
:101F2000630000004572726F723A25732C25640DB0
:101F30000A0000004C00002010B50F484FF47A73DF
:101F40000E4A0068B0FBF3F191606FF07F44B4FB80
:101F5000F1F1D160B0FBF0F15E24B4FBF1F111615D
:101F60004FF0E02100220A618A61B0FBF3F0401ECD
:101F700048610720086110BD24000020680000208F
:101F80002DE9F0410446324DE868844200D9044608
:101F900072B6BFF34F8FBFF36F8FFFF72FF830B1DB
:101FA0004FF0E02306271F61986918B103E062B67D
:101FB000BDE8F081A868AA68611E02FB01012548FE
:101FC0000668760103D54FF000760660891A286905
:101FD000814200D9091A596100269E61186940F0B2
:101FE0000100186124B1BFF34F8F30BFBFF36F8F73
:101FF00062B6BFF34F8FBFF36F8F72B6BFF34F8FD1
:10200000BFF36F8F1F611869C0030DD59869081A57
:10201000A968081A401E2A69904201D9884200D94D
:10202000481E5861601E09E09869AA685443211A45
:10203000B1FBF2F0441C5443611A59619E610721BF
:102040001961A968491E596100F088FA62B6AFE7C4
:102050006800002004ED00E010B5FEF749F9104CCF
:1020600010280CD300F1E02090F8F003217888428A
:1020700005D240F24E320BA114A0FEF75FF91748CB
:102080000068616900F4E060884207D9BDE810404B
:1020900040F25E3203A10DA0FEF750B910BD000062
:1020A000680000202E2E5C4672656552544F535CCA
:1020B000706F72745C525644535C41524D5F434D95
:1020C00034465C706F72742E630000004572726F4C
:1020D000723A25732C25640D0A0000000CED00E017
:1020E00070B505460E460024002D05D140F6D822D5
:1020F0000DA113A0FEF722F98EB10022144800EBC7
:10210000C2035968A94202D100EBC20407E01CB91E
:1021100050F8321001B91C46521C0A2AEFD3002C89
:1021200001D02660656070BD2E2E5C4672656552DA
:10213000544F535C7372635C71756575652E6300F3
:102140004572726F723A25732C25640D0A000000E7
:102150006C97002070B504460D461646FFF732FE18
:1021600094F944304FF000005B1C01D184F8440026
:1021700094F94510491C01D184F84500FFF75CFE35
:10218000A06B28B93246294604F1240000F0E8F893
:102190002046BDE87040FFF793BC000010B5044630
:1021A0000020002C10D00E48406B28B140F21C5289
:1021B0000CA112A0FEF7C2F800F088FA0021204618
:1021C000FEF7C4FF01F0B4F9002807D10F494FF022
:1021D00080500860BFF34F8FBFF36F8F10BD0000BA
:1021E000800000202E2E5C4672656552544F535C71
:1021F0007372635C7461736B732E63004572726FEC
:10220000723A25732C25640D0A00000004ED00E0ED
:1022100070B50446FFF7D6FD254D04B92C68201D86
:10222000FFF76EFD58B9E06A224A00EB800152F8D0
:10223000211021B901218140286988432861A06AC1
:1022400018B104F11800FFF75BFD686A401C686272
:102250002868844207D1211D1748FFF7A7FD686849
:10226000401C686004E0A868401EA860FFF784FB7B
:10227000FFF7E2FD2868844202D02046FFF78CF881
:102280006869002812D0286884420FD1686B28B191
:1022900040F2AF4209A10FA0FEF750F811494FF0EC
:1022A00080500860BFF34F8FBFF36F8F70BD000089
:1022B00080000020BC970020789A00202E2E5C46DB
:1022C00072656552544F535C7372635C7461736BD7
:1022D000732E63004572726F723A25732C25640D5C
:1022E0000A00000004ED00E002490A6A0260C968C1
:1022F000416070478000002001490120C86170479B
:102300008000002070B504460D46002C05D140F633
:102310000E4208A10DA0FEF711F8104801682046F2
:102320001831FFF72BFD2846BDE870400121FEF76C
:102330000DBF00002E2E5C4672656552544F535CF3
:102340007372635C7461736B732E63004572726F9A
:10235000723A25732C25640D0A00000080000020CD
:1023600070B504460D461646002C05D140F6444291
:102370000FA115A0FDF7E2FF606817490A68D06158
:1023800082680B681A620A68836818325A600A68A1
:1023900018328260086884622068401C20600EB198
:1023A0004FF0FF3531462846BDE87040FEF7CEBEFF
:1023B0002E2E5C4672656552544F535C7372635C9B
:1023C0007461736B732E63004572726F723A25737A
:1023D0002C25640D0A0000008000002070B5044622
:1023E000002805D140F2267222A128A0FDF7A6FF01
:1023F0002A4D286884423CD0002C3AD0FFF7E2FCFA
:102400002046FFF725FB80B3201DFFF779FCE06A2B
:1024100001212A69814011432961214A00EB800092
:1024200002EB80004068A0608168E1608368211D44
:1024300059608160E06A00EB800002EB800060611F
:10244000E06A00EB800052F82010491C42F820108E
:10245000E06A2968C96A884207D312494FF0805060
:102460000860BFF34F8FBFF36F8FBDE87040FFF779
:10247000E3BC70BD2E2E5C4672656552544F535CB2
:102480007372635C7461736B732E63004572726F59
:10249000723A25732C25640D0A000000800000208C
:1024A000BC97002004ED00E030B587B0002406940E
:1024B000059404AA05A906A8FFF73CFCDDE9051070
:1024C000CDE900410290002316A11848049A00F0BB
:1024D0009FFE174DE86208B1012000E000200128AE
:1024E00001D101F0E7F8012802D0401C10D015E01E
:1024F000502080F31188BFF34F8FBFF36F8F4FF0E1
:10250000FF30A86201206861EC6000F071F905E01D
:1025100040F6120207A10DA0FDF710FF286B07B0CF
:1025200030BD000049444C4500000000A5140008DF
:10253000800000202E2E5C4672656552544F535C1D
:102540007372635C7461736B732E63004572726F98
:10255000723A25732C25640D0A00000070B50446FC
:10256000154DE868A96A2044884205D940F61A2228
:1025700012A118A0FDF7E2FEE868A96A204488428B
:1025800016D1686B28B940F621220CA111A0FDF7E5
:10259000D5FE2CB940F6222208A10EA0FDF7CEFEF2
:1025A000FFF710FCA869401CA861FFF745FC641EFA
:1025B000E8682044E86070BD800000202E2E5C4654
:1025C00072656552544F535C7372635C7461736BD4
:1025D000732E63004572726F723A25732C25640D59
:1025E0000A00000070B50446FFF7ECFB294E04B961
:1025F0003468201DFFF784FB58B9E06A264900EBD8
:10260000800251F8221021B90121814030698843AC
:102610003061A06A18B104F11800FFF771FB211DA9
:102620001E48FFF7C3FB00200025211891F8482021
:10263000012A01D181F84850401C0128F5DBFFF741
:10264000FBFB706928B1FFF7BDFBFFF795F9FFF7BA
:10265000F3FB3068844211D1706980B1706B28B18E
:1026600040F2D2620EA114A0FDF768FE16494FF0A9
:1026700080500860BFF34F8FBFF36F8F70BD074866
:102680000068B168884201D1356070BDBDE8704016
:1026900000F024B880000020BC9700208C9A002015
:1026A0002E2E5C4672656552544F535C7372635CA8
:1026B0007461736B732E63004572726F723A257387
:1026C0002C25640D0A00000004ED00E00248416B77
:1026D000491C4163704700008000002070B5144D14
:1026E000686B002802D00120E86170BD0020E8611D
:1026F0002869B0FA80F0C0F11F000E4E00EB800494
:1027000056F8240028B940F6F6320BA110A0FDF7C8
:1027100015FE06EB840041684968416000F108023B
:10272000914201D1496841604068C068286070BD2D
:1027300080000020BC9700202E2E5C4672656552FA
:10274000544F535C7372635C7461736B732E6300DC
:102750004572726F723A25732C25640D0A000000D1
:1027600010B512A0FDF7EAFD13480068134CC8B974
:102770004FF0FF31606800F023FC012812D1E068BF
:10278000FEF75AFC2070032806D0E068FFF72AFF06
:102790000BA0FDF7D3FD05E0E068FFF71FFE0EA0DC
:1027A000FDF7CCFD0020206210BD000054696D656E
:1027B00072A3A10D0A000000208240420000002008
:1027C0004C4544315F5461736BC8CECEF1B9D2C66B
:1027D000F0B3C9B9A6A3A1004C4544315F5461735D
:1027E0006BC8CECEF1BBD6B8B4B3C9B9A6A3A1000D
:1027F0007CB5384C21683848814205D14FF4A3722A
:1028000036A140A0FDF79AFD20683349491E884251
:1028100005D140F2471231A13AA0FDF78FFD3D4DA1
:1028200028780190FF202870287800909DF80000FB
:102830009DF8001000F0F000884205D04FF4B0720F
:1028400026A130A0FDF77AFD9DF80000324C00F083
:10285000500020700720606106E06069401E6061E2
:102860009DF80000400000909DF800000006F4D4A0
:102870006069032805D04FF4BA7218A121A0FDF7B2
:102880005DFD6069032805D040F27D1213A11DA0F3
:10289000FDF754FD207D000200F4E06060610198C6
:1028A00028700C482030016841F470010160016813
:1028B00041F070410160FFF73FFB00206060FDF7D1
:1028C000DFFC1648016841F040410160FDF7C4FC9F
:1028D00000207CBD00ED00E071C20F412E2E5C4651
:1028E00072656552544F535C706F72745C525644FB
:1028F000535C41524D5F434D34465C706F72742E91
:10290000630000004572726F723A25732C25640DC6
:102910000A00000000E400E06800002034EF00E05E
:1029200010B5502080F31188BFF34F8FBFF36F8F26
:1029300000F0D0FC18B104494FF08050086000202E
:1029400080F3118810BD000004ED00E0F8B50546E5
:102950000E4617460024002D1AD0601EB0FBF5F07D
:10296000B04215D305FB06F010F1490F10D84830DE
:10297000FFF7DCF804468CB122464832002084F888
:1029800046003B46314628460094FEF7CFFD05E061
:102990004FF4F27202A108A0FDF7D0FC2046F8BD6A
:1029A0002E2E5C4672656552544F535C7372635CA5
:1029B00071756575652E63004572726F723A257385
:1029C0002C25640D0A0000002DE9F843DDF8209065
:1029D00080460E4617461D460024002D05D140F2C4
:1029E000771211A116A0FDF7A9FCB8F1000F04D0D1
:1029F0001DB107B10EB14FB946B14FF4D0720AA163
:102A00000FA0FDF79BFC2046BDE8F883482000900E
:102A10002C46012084F846004B463A463146404653
:102A20000094FEF783FDEEE72E2E5C46726565523C
:102A3000544F535C7372635C71756575652E6300EA
:102A40004572726F723A25732C25640D0A000000DE
:102A50002DE9F04104460F460125002C05D14FF425
:102A6000977227A12CA0FDF769FC20003CD0E06BF9
:102A7000C8B34FF0FF36B6FBF0F1206C814233D380
:102A8000FFF7A0F9D4E90F20216802FB0011A16033
:102A90000021A16321686160E06B2268216C401E07
:102AA00000FB0121E16084F8446084F8456004F192
:102AB000100047B1FFF754F904F12400FFF750F973
:102AC000FFF7BAF911E021690029F9D000F0ACFC58
:102AD0000028F5D014494FF080500860BFF34F8FA5
:102AE000BFF36F8FECE7FFE700252DB940F26312CB
:102AF00003A109A0FDF722FC2846BDE8F0810000F3
:102B00002E2E5C4672656552544F535C7372635C43
:102B100071756575652E63004572726F723A257323
:102B20002C25640D0A00000004ED00E02DE9FF47AC
:102B300082B004468A461E460025002C05D14FF47B
:102B400053724EA153A0FDF7F9FBBAF1000F07D164
:102B5000206C28B140F24D3248A14EA0FDF7EEFBAB
:102B6000022E08D1E06B012805D040F24E3243A17D
:102B700048A0FDF7E3FB00F099FB38B9049828B1B1
:102B800040F251323DA143A0FDF7D8FB4FF00009C0
:102B90004FF08057DFF80C81FFF714F9A06BE16B61
:102BA000884205D3022E03D0049808B325B327E04A
:102BB000324651462046FEF7C1FB616A59B104F125
:102BC000240000F031FC68B1C8F80070BFF34F8FEB
:102BD000BFF36F8F06E028B1C8F80070BFF34F8FC6
:102BE000BFF36F8FFFF728F9012006B0BDE8F0872B
:102BF000FFF722F90020F8E76846FFF775FB01258B
:102C0000FFF71AF9FFF762FDFFF7DCF894F94400CB
:102C1000401C01D184F8449094F94500401C01D136
:102C200084F84590FFF708F904A9684600F06AFAAD
:102C300030B12046FEF744FF00F07AFC0020D4E7D4
:102C40002046FEF79AFD90B104F110000499FFF7B9
:102C500059FB2046FEF734FF00F06AFC00289BD1A8
:102C6000C8F80070BFF34F8FBFF36F8F94E7204613
:102C7000FEF726FF00F05CFC8EE700002E2E5C467F
:102C800072656552544F535C7372635C7175657500
:102C9000652E63004572726F723A25732C25640DA0
:102CA0000A00000004ED00E02DE9F04704468946E3
:102CB00090461F46002C05D14FF484622CA132A00F
:102CC000FDF73CFBB9F1000F07D1206C28B140F2B1
:102CD000214227A12CA0FDF731FB022F08D1E06B88
:102CE000012805D040F2224221A127A0FDF726FBB2
:102CF000FFF7B2F95020EFF3118680F31188BFF38C
:102D00004F8FBFF36F8FA06BE16B884206D3022F0A
:102D100004D0002086F31188BDE8F08794F945506F
:102D2000A06B3A4649462046FEF708FB681C06D0D1
:102D3000FEF7FAFF854219D27F2D0ED013E0606AAC
:102D4000A0B104F1240000F06FFB78B1B8F1000FDE
:102D50000CD00120C8F8000008E040F2AB4204A10A
:102D600009A0FDF7EBFA6D1C84F845500120D1E76E
:102D70002E2E5C4672656552544F535C7372635CD1
:102D800071756575652E63004572726F723A2573B1
:102D90002C25640D0A0000002DE9F04104460F4681
:102DA000002C05D140F2C94226A12CA0FDF7C6FA9D
:102DB000206C28B140F2CD4222A128A0FDF7BEFA36
:102DC000206838B9A06828B140F2D2421DA123A0E2
:102DD000FDF7B4FAFFF740F95020EFF3118680F3C6
:102DE0001188BFF34F8FBFF36F8FA06BE16B8142F0
:102DF00022D994F94550401CA063681C06D0FEF708
:102E000093FF854216D27F2D0BD010E0606A88B107
:102E100004F1240000F008FB60B15FB101203860CC
:102E200008E040F2515207A10CA0FDF787FA6D1C93
:102E300084F84550012000E0002086F31188BDE8A9
:102E4000F08100002E2E5C4672656552544F535C33
:102E50007372635C71756575652E63004572726F80
:102E6000723A25732C25640D0A0000002DE9F747FE
:102E700083B004468A460026002C05D140F26B52EE
:102E800044A14AA0FDF75AFABAF1000F07D1206C0D
:102E900028B140F26F523FA144A0FDF74FFA00F075
:102EA00005FA38B9059828B140F2745239A13FA00B
:102EB000FDF744FA00274FF08058DFF80091FEF745
:102EC00081FFA56BC5B151462046FEF723FA6D1E62
:102ED000A563206950B104F1100000F0A5FA28B1F3
:102EE000C9F80080BFF34F8FBFF36F8FFEF7A4FFC9
:102EF000012006B0BDE8F087059808B126B107E0CB
:102F0000FEF79AFF0020F4E701A8FFF7EDF901268C
:102F1000FEF792FFFFF7DAFBFEF754FF94F9440047
:102F2000401C01D184F8447094F94500401C01D143
:102F300084F84570FEF780FF05A901A800F0E2F8CB
:102F400058B12046FEF7BCFD00F0F2FA2046FEF72D
:102F500007FC0028B3D00020CBE72046FEF700FC9A
:102F600090B104F124000599FFF7CCF92046FEF753
:102F7000A7FD00F0DDFA0028A1D1C9F80080BFF359
:102F80004F8FBFF36F8F9AE72046FEF799FD00F051
:102F9000CFFA94E72E2E5C4672656552544F535C0F
:102FA0007372635C71756575652E63004572726F2F
:102FB000723A25732C25640D0A00000004ED00E030
:102FC0002DE9F34182B004460025002C05D140F2E2
:102FD000FD5241A146A0FDF7B1F9206C28B140F2A5
:102FE00001623DA142A0FDF7A9F900F05FF938B9EF
:102FF000039828B140F2066237A13DA0FDF79EF983
:1030000000264FF08057DFF8F880FEF7DBFEA06B5C
:10301000A0B1401EA063206950B104F1100000F07F
:1030200003FA28B1C8F80070BFF34F8FBFF36F8F5A
:10303000FEF702FF012004B0BDE8F081039808B15B
:1030400025B107E0FEF7F8FE0020F4E76846FFF739
:103050004BF90125FEF7F0FEFFF738FBFEF7B2FE55
:1030600094F94400401C01D184F8446094F945006F
:10307000401C01D184F84560FEF7DEFE03A96846D6
:1030800000F040F858B12046FEF71AFD00F050FA63
:103090002046FEF765FB0028B7D00020CBE720468E
:1030A000FEF75EFB90B104F124000399FFF72AF9C3
:1030B0002046FEF705FD00F03BFA0028A5D1C8F830
:1030C0000070BFF34F8FBFF36F8F9EE72046FEF770
:1030D000F7FC00F02DFA98E72E2E5C4672656552DB
:1030E000544F535C7372635C71756575652E630034
:1030F0004572726F723A25732C25640D0A00000028
:1031000004ED00E02DE9F04105460C46002D05D107
:1031100040F6EF4218A11EA0FDF710F92CB94FF4AC
:103120004F6215A11AA0FDF709F9FEF74BFE1C4EE0
:10313000F0686B68C11A2268571C0AD02F68D6F84D
:1031400020C00026674506D0834204D801252660AA
:103150000CE000250AE08A4206D9501A2060284671
:10316000FFF7C2F8002501E026600125FEF764FEA6
:103170002846BDE8F08100002E2E5C46726565523F
:10318000544F535C7372635C7461736B732E630092
:103190004572726F723A25732C25640D0A00000087
:1031A000800000202DE9FF5F8146DDE90E788A4628
:1031B00016469B46B000FEF7B9FC054628000ED027
:1031C0004C20FEF7B3FC04462CB14C212046FDF701
:1031D000A0F9256304E02846FEF760FE00E0002425
:1031E0009CB1002084F84900CDE90240CDE9007887
:1031F0005B46324651464846FEF7A4F92046FDF7A5
:10320000EBFF012004B0BDE8F09F4FF0FF30F9E77D
:103210002DE9F04F85B08046DDE90E75109C89469A
:1032200092469B46002D05D140F23F2215A11BA0DE
:10323000FDF784F82CB94FF4107212A117A0FDF716
:103240007DF84C2003900026BCB1B5B14C2120463E
:10325000FDF75FF92563022084F8490004A8CDE951
:103260000070CDE902465B46524649464046FEF7AD
:1032700069F92046FDF7B0FF00E00496049805B018
:10328000BDE8F08F2E2E5C4672656552544F535C3C
:103290007372635C7461736B732E63004572726F3B
:1032A000723A25732C25640D0A0000000548416917
:1032B000002903D0406B18B10020704701207047EF
:1032C00002207047800000200148C068704700005D
:1032D000800000202DE9F0410025474E706B00284A
:1032E00005D0B069401CB0612846BDE8F081F468A3
:1032F000641CF4608CB9B06B006828B140F6B7224A
:103300003EA144A0FDF71AF8B06BF16BB163F06316
:10331000306A401C3062FEF72FFBB06A414F844296
:103320000FD34FF0000CB06B006838B1B06BC068C1
:10333000C1684868844212D2B06202E04FF0FF30A8
:10334000B0623068C06A00EB800057F820000128A6
:1033500000D90125F0690028C6D00125C4E74A69D3
:10336000D1E902309860D1E90203586050680B1D22
:10337000984201D1C8685060C1F814C01068401E5E
:1033800010608A6A9AB1D1E90780C8F80800D1E9CB
:103390000708C8F80400506801F11808404501D139
:1033A000086A5060C1F828C01068401E1060C86AE2
:1033B0000122D6F81080824042EA0802326100EB16
:1033C000800007EB800042688A609068C86090685F
:1033D00043609360C86A00EB800007EB80024A619B
:1033E00057F82020521C47F82020C86A3168C96A63
:1033F000884298D9012596E7800000202E2E5C4651
:1034000072656552544F535C7372635C7461736B85
:10341000732E63004572726F723A25732C25640D0A
:103420000A000000BC97002070B5C068C468002C7A
:1034300005D140F6744231A136A0FCF77FFFA06AA7
:10344000D4E907128A60D4E907125160426804F196
:1034500018018A4201D1226A42600022A2620368F6
:103460005B1E03602F4D686B012698B12E4A506891
:10347000E06183682362836859608160A26210689A
:10348000401C1060E06A2968C96A884233D901206B
:10349000EE6170BD6069D4E902319960D4E902132C
:1034A00059604368211D8B4201D1E368436062612A
:1034B0000268521E0260E06A2B6906FA00F21A43A3
:1034C0002A611A4A00EB800002EB80004068A0608D
:1034D0008368E360836859608160E06A00EB800084
:1034E00002EB8001616152F82010491C42F8201063
:1034F000FEF742FAC6E7002070BD00002E2E5C46A3
:1035000072656552544F535C7372635C7461736B84
:10351000732E63004572726F723A25732C25640D09
:103520000A00000080000020649A0020BC97002060
:103530002DE9F0410024A046434D686B002805D1D9
:1035400040F6850241A147A0FCF7F8FEFEF73AFCE1
:10355000686B401E6863686B002870D1A8680028FB
:103560006DD00027434A01264DE0D068C468A16AA7
:10357000D4E907309860D4E9070358604B6804F138
:103580001800834201D1206A4860A7620868401E83
:1035900008606169D4E902309860D4E90203586098
:1035A0004B68201D834201D1E3684B6067610B6863
:1035B0005B1E0B60E16AD5F810C006FA01F343EA1E
:1035C0000C032B612C4B01EB810103EB810149685A
:1035D000A160D1F808C0C4F80CC0D1F808C0CCF87C
:1035E00004008860E06A00EB800003EB8001616109
:1035F00053F82010491C43F82010E06A2968C96A72
:10360000884200D3EE6110680028AED10CB1FEF7FD
:10361000B3F9AC693CB1FFF75DFE00B1EE61641E29
:10362000002CF8D1AF61E86948B14FF001081349A7
:103630004FF080500860BFF34F8FBFF36F8FFEF7DE
:10364000FBFB4046BDE8F081800000202E2E5C464A
:1036500072656552544F535C7372635C7461736B33
:10366000732E63004572726F723A25732C25640DB8
:103670000A000000649A0020BC97002004ED00E0DE
:103680002DE9FC4706460A9D0F469046994628209C
:10369000FEF74CFA044654B1002084F82400CDE92A
:1036A00000544B46424639463046FDF7A9FF2046B6
:1036B000BDE8FC8730B587B00024FDF7E1FD124D71
:1036C0002868B0B100200690059004AA05A906A8B4
:1036D000FEF73AFBDDE905101F22CDE9002102903B
:1036E00000230AA10B48049AFFF792FD686000B11D
:1036F00001242CB940F2191207A10EA0FCF71EFEFE
:1037000007B0204630BD0000C0000020546D72207C
:1037100053766300AD1A00082E2E5C467265655222
:10372000544F535C7372635C74696D6572732E637E
:10373000000000004572726F723A25732C25640DEB
:103740000A0000002DE9FE4FDDF830A005460E46C8
:10375000904699460027002D05D140F28B1215A105
:103760001BA0FCF7EBFD1E4C2068F8B10096CDF8CD
:1037700004800295062E13DAFFF798FD022807D081
:1037800000231A4669462068FFF7D0F907460DE086
:103790000023524669462068FFF7C8F9074605E04E
:1037A00000234A466946FFF77FFA07463846BDE8D8
:1037B000FE8F00002E2E5C4672656552544F535C9E
:1037C0007372635C74696D6572732E630000000030
:1037D0004572726F723A25732C25640D0A00000041
:1037E000C00000204FF04070E1EE100A704700006A
:1037F0001038000800000020D4000000C4010008B8
:10380000E4380008D400002014A10000E001000802
:1038100000000000000000000000000000000000A8
:103820000000000000000000000000000000000098
:1038300000000000007A030A000000000000000001
:103840000102030406070809000000000102030446
:103850000102030406070809000000000000000040
:103860000000000000000000000000000000000058
:10387000000000000000000000000000AAAAAAAAA0
:103880000000000000000000000000000000000038
:103890000000000000000000000000000000000028
:1038A0000000000000000000000000000000000018
:1038B0000000000000000000000000000000000008
:1038C0001F000000000000000000000000000000D9
:1038D00000000000000000000000000000000000E8
:0438E00000000000E4
:040000050800018965
:00000001FF
